:100000000C94AF000C94D7000C94D7000C94D7003C
:100010000C94D7000C94D7000C94D7000C94D70004
:100020000C94D7000C94D7000C94E7150C9456163A
:100030000C94D7000C94D7000C94D7000C94D700E4
:100040000C94D7000C94D2180C94D7000C94D700C1
:100050000C94D7000C94D7000C94D7000C948818FB
:100060000C94D7000C94D7000C94D7000C94D700B4
:100070000C94D7000C94D7000C94D7000C94D700A4
:100080000C94D7000C94D7000C94D7000C94D70094
:100090000C94D7000C94D7000C94D7000C94D70084
:1000A0000C94D7000C94D7000C94D7002C00360089
:1000B0003000300034003000380030003C003000A8
:1000C0004000300044003000480030004C00300058
:1000D00050003000080B000202020000090400007A
:1000E00001020200000524001001052401010104A1
:1000F00024020605240600010705810310004009BB
:10010000040100020A000000070502024000000787
:100110000583024000000403090412010002EF02FB
:1001200001404123368000010102030141726475E0
:10013000696E6F204C4C430041726475626F7900A8
:10014000D5F08D14A1C881CFD9F1AF2000DB20C03C
:10015000A0D92181FFA800A800A83F00E918112418
:100160001FBECFEFDAE0DEBFCDBF11E0A0E0B1E00F
:10017000E0EDF4E502C005900D92A436B107D9F781
:1001800027E0A4E6B1E001C01D92AF3DB207E1F760
:1001900010E0CFEAD0E004C02197FE010E94602A5F
:1001A000CE3AD107C9F70E9464190C94662A0C94C0
:1001B00000002091DE0730E02F5F3F4F95E0929FD7
:1001C000F001939FF00D1124E857F84F9281913080
:1001D00019F0923051F00895833080F0853088F026
:1001E000853061F482E090E00895833038F0853006
:1001F00040F0853019F484E090E0089590E080E0CC
:10020000089581E090E00895FC018091980588238D
:1002100011F13FB7F89482E08093E9002091F20059
:10022000822F90E01816190614F481E090E08823DC
:1002300039F0289844E6409397054091F1004083B7
:10024000222339F02091F200211103C02BE62093E4
:10025000E8003FBF08958FEF9FEF08952FB7F89400
:1002600083E08093E9009091E800892F807295FFE8
:1002700004C09091F20080E4891B2FBF0895809103
:100280008F0581110DC082E080938B0584E08093FF
:100290008C0510928E0510928D0581E080938F055C
:1002A0008BE895E008954091790150917A01209171
:1002B00077013091780142175307B4F49091E80028
:1002C0009570E1F39091E80092FD19C08093F100E0
:1002D0008091790190917A0101968F739927892BEA
:1002E00019F48EEF8093E8008091790190917A0162
:1002F000019690937A018093790181E0089580E0DE
:100300000895EF92FF920F931F93CF93DF93F82EF0
:10031000192FE62E042F81E0860F880F0E945301CB
:1003200083E00E945301CF2DD12FEC0EFD2EF11C46
:10033000CE15DF05B9F007FF13C0FE0184910E94BE
:100340005301182F80E00E945301812321968111CF
:10035000EFCFDF91CF911F910F91FF90EF90089514
:100360008881EDCF81E0F5CFDF92EF92FF920F937E
:100370001F93CF93DF93D82E8A01EB017B01E40E0C
:10038000F51ECE15DF0559F0D7FE12C0FE0184918F
:100390000E94530121968111F4CF0FEF1FEFC80186
:1003A000DF91CF911F910F91FF90EF90DF90089513
:1003B0008881EECF0F931F93CF93DF931F92CDB71A
:1003C000DEB782E0898342E450E064ED70E080E8CB
:1003D0000E94B4010E943F01DC0112960D911C9114
:1003E0000115110589F0D801ED91FC910280F3818E
:1003F000E02DBE016F5F7F4FC801099597FD04C0D6
:10040000F80100851185ECCF89810F90DF91CF91A4
:100410001F910F910895615030F02091F100FC017F
:1004200020830196F8CF289884E680939705089555
:10043000CF93DF931F92CDB7DEB76983DC01ED91D7
:10044000FC910280F381E02D41E050E0BE016F5F3E
:100450007F4F09950F90DF91CF91089583E08093AE
:10046000E9008091F200882319F08AE38093E80084
:1004700008950E942E0190E00895CF93DF931F927C
:10048000CDB7DEB7FC018485958597FD08C02FEFB9
:100490003FEF358724870F90DF91CF910895CE01EC
:1004A00001960E940401019719F4898190E0F3CF2D
:1004B0008FEF9FEFF0CF0F931F93CF93DF931F9298
:1004C000CDB7DEB78C01FC018485958597FF0BC005
:1004D000CE0101960E940401019771F4898190E098
:1004E000F80195878487F801848595850F90DF91C1
:1004F000CF911F910F9108958FEF9FEFF1CFFC01E6
:100500008485958597FD0BC09FB7F89482E0809312
:10051000E9008091F2009FBF90E0019608959FB797
:10052000F89482E08093E9008091F2009FBF90E010
:1005300008950DB407FEFDCF8EB5599A08950DB4F8
:1005400007FEFDCF8EB51EBC089559980E94BD02CE
:10055000862F0E94BD02852F0E94BD02842F0C941D
:10056000BD02462F50918101570F60918201681F93
:1005700083E00E94A5021EBC08958EBD00008EB5CA
:100580000DB407FEFCCF0895FC010E945F03319774
:1005900028F068517C4F8F4F9F4FF9CFAB01FC0182
:1005A0000E945F03641775078E079F07C8F30895BD
:1005B00085E090E00C94C4028F929F92AF92BF921C
:1005C000CF92DF92EF92FF920F931F93CF93DF931F
:1005D0006C017B018A0180910B01882309F45AC0C8
:1005E00080919805882309F455C080917D0180FF92
:1005F00005C08091E00082608093E000E801B12CAA
:100600008AEFA82E93E0892E2AE3922E209711F4E8
:10061000BB20C9F10E942E01811108C0AA94AA2012
:10062000C9F181E090E00E94C402F0CF8C171D0652
:1006300011F00CF08C2F9FB7F8948092E900209174
:10064000E80025FD02C09FBFE1CF282F30E0C21B8C
:10065000D30BF701815020F041914093F100FACF84
:10066000E20EF31EBB2021F09092E800B12CEBCFFC
:100670008091E80085FDE7CF9092E800BB24B39419
:10068000209709F3F3CF5D9884E680937C011016E0
:1006900011063CF081E090E0F6019383828310E044
:1006A00000E0C801DF91CF911F910F91FF90EF9073
:1006B000DF90CF90BF90AF909F908F900895A3E769
:1006C000B1E02FB7F8947D918D919C9166B52FBFC5
:1006D000A89B05C06F3F18F47F5F8F4F9F4F22E0AC
:1006E000660F771F881F991F2A95D1F70895FC017F
:1006F0009081611105C081E0913039F080E005C042
:10070000613021F481E09111F9CF0895623021F434
:1007100081E0933099F7F9CF633081F781E092302F
:1007200069F7F3CF30E73CBDDC0130E8439FC001FF
:100730001124A80FB91F5E91352F6111372F3C93FB
:10074000C89500C052235EBD0197A9F704D003D01D
:1007500030E50DB43CBD089580918305882329F0D0
:1007600081508093830581E0089580E00895809111
:100770006B0180936C019FB19095907F669B986010
:100780001C9B946090936B01809589230895262F7C
:100790009091DD07891B990B039664E070E00E943D
:1007A0004C2A489F200D1124822F08950F931F93E8
:1007B000CF93DF9344E0849F90011124F901E45525
:1007C000FF4F849140E1849FC0011124CFE0D1E02C
:1007D00099878887F901E255FF4FE49120E1E29F74
:1007E000F0011124FB87EA87805E964008E110E063
:1007F000B8010E944C2A9B017D836C83CF014097F6
:10080000B8010E944C2A7F836E832052394F39836E
:1008100028837195619571097B836A8382E190E0F9
:100820009F878E8780E891E09D878C87DF91CF91AD
:100830001F910F910895E8E8F7E02CE937E080E098
:100840009781911101C08F5F35962E173F07C1F731
:100850008430E8F42091890565E0822F90E00196CC
:1008600083709927282FAC014F5F5F4F649FF00181
:10087000659FF00D1124E857F84F3281332369F357
:10088000809389051092EE051092ED0508958091F0
:100890009A058152823060F48091890590E001963A
:1008A000837099278093890583E280939A05EACF24
:1008B00086E280939A050895E5E8F7E080818F5FEE
:1008C00080838150990B25E0289FD001299FB00D8E
:1008D0001124A45FB84F11969C911197E8E8F7E0B6
:1008E00096A78C9185A791AB80AB08953F924F92CC
:1008F0005F926F927F928F929F92AF92BF92CF92B0
:10090000DF92EF92FF920F931F93CF93DF9300D06C
:100910001F92CDB7DEB73A01862EA3E8B1E0B7014A
:10092000E02FDD24382E96959695969531E061FD61
:1009300034E060FD330F62FD32955FEF539F70012D
:10094000E094F0947595679575956795759567959D
:10095000462F4F3F4CF44095941B20FD440F489F79
:10096000600C711C8D1C4FEF17FF0BC0300E20FF69
:1009700002C0000F111F601A710A8D0817FD8394C1
:10098000EE2750E845030E0EA00DB11D5E1B351677
:1009900008F0352E57E0541B591714F4952FD394B3
:1009A00050E85319482E552421FD02C0431855081C
:1009B00020FF02C0440C551C11245B824A82932EF6
:1009C00000908101700C00908201801C19C0599820
:1009D00033E03EBD640C751C811CAA24831509F00C
:1009E000A3940CD08EBC07D07EBC05D06EBC03D0C7
:1009F0001EBC03D00895C8950000C895C8950895F9
:100A0000641875088108E3DF41151CF0992371F51E
:100A100064C0A058BF4FC32C20FD0CC06EB51EBCD7
:100A2000699DBC90BF20B128BD92C89500C0CA94F2
:100A3000A9F711C06EB51EBC699DB001DEDFEEB432
:100A40001EBCE99C7001BC90F094BF20B72ABD92F7
:100A5000C895CA9479F71124A319B1099A9509F494
:100A60005CC0AA2019F00DB4599AB1DFFD01E0581D
:100A7000FF4FC32C20FD0EC06EB51EBC699DBC90FF
:100A8000BE20B028BD92B080BF20B128B192CA94D8
:100A900099F716C06EB51EBC699DB001BC90F08080
:100AA000AEDF00C0EEB41EBCE99C0094B020B62AB4
:100AB000BD921094F120F72AF1920000CA9451F7E8
:100AC0001124A50FB11D9A9561F6DD2031F1AA2000
:100AD00021F00DB4599A7BDFC89520FD0CC06EB58E
:100AE0001EBC699DBC90BE20B028BD92C89500C0B8
:100AF0003A94A9F712C06EB51EBC699DB0017DDFA6
:100B00009EB51EBC999D902DBC909095B922B62A99
:100B1000BD92C8953A9479F7C8951124599A0DB4A5
:100B20000F900F900F90DF91CF911F910F91FF9039
:100B3000EF90DF90CF90BF90AF909F908F907F907D
:100B40006F905F904F903F9008956F927F928F9239
:100B5000AF92CF92DF92EF92FF920F931F93DC013F
:100B6000922F2A2DF92FE42F3701802EC114D104A2
:100B7000A1F0969596959695A0FC990F949F70017B
:100B8000ED9C700C811CFC9C700C811CFD9C800CED
:100B9000EC9C600C711C1124811C7B018D01682D63
:100BA000A301CF010E9476041F910F91FF90EF9057
:100BB000DF90CF90AF908F907F906F9008954F927D
:100BC0005F926F927F928F92AF92BF92CF92DF929D
:100BD000EF92FF920F931F93CF93DF93EC012B01C2
:100BE0003901842E842FB9010E94B1020E949F0214
:100BF000B82E0E949902C038D105FCF490E4491641
:100C00005104DCF49E012B0D311D12161306ACF4B9
:100C10009201280F311D121613067CF492E0690E22
:100C2000711C811C93E0A92E6801082D7301282FE7
:100C30004B2DB201CE010E94A505DF91CF911F91EE
:100C40000F91FF90EF90DF90CF90BF90AF908F907B
:100C50007F906F905F904F900895EF92FF920F9367
:100C60001F93CF93DF93F82EC091DD0780918F07FC
:100C70008130C9F108F44DC0823009F447C0833097
:100C800009F458C0E12C80919407813009F456C0D2
:100C900008F46BC0823009F463C0833009F477C074
:100CA00080919907813009F479C008F490C08230AE
:100CB00009F488C0833009F49AC080919E0781307E
:100CC00009F49AC008F4AFC0823009F4A7C0833099
:100CD00009F4C6C0E110B8C0DF91CF911F910F9108
:100CE000FF90EF9008950F2D10E00D5F1F4F20E44F
:100CF0003BED43E061E170E08CE590E00E94DF05B0
:100D0000C111C0CFD6E05DE5E52EBDCF0F2D10E0BF
:100D1000EECF0F2D10E00A5F1F4F20E43BED43E0C4
:100D200061E170E08CE590E00E94DF05C111AACF7F
:100D3000DAE0E9CFC111A6CFD7E1E5CF0F2D10E062
:100D40000D5F1F4F24E238ED43E068E270E089E276
:100D500090E00E94DF05C13009F0A2CFD8E2A0CF19
:100D60000F2D10E00A5F1F4FEDCF0F2D10E024E292
:100D700038ED43E068E270E089E290E00E94DF0530
:100D8000C13009F08DCFD8E243E2E42E89CFC130E3
:100D900009F086CFD8E234E3E32E82CF0F2D10E0A6
:100DA0000D5F1F4F24EC39ED43E060E170E086E019
:100DB00090E00E94DF05C23009F07FCFD7E027E046
:100DC000E22E7BCF0F2D10E00A5F1F4FEBCF0F2DD0
:100DD00010E024EC39ED43E060E170E086E090E063
:100DE0000E94DF05C23009F068CFDBE0E8CFC230F7
:100DF00009F063CFD7E1E3CF0F2D10E00D5F1F4F58
:100E000024E836ED43E066E070E089E290E00E947D
:100E1000DF05C33009F05ECFD6E05CCF0F2D10E0C8
:100E20000A5F1F4FEDCF0F2D10E024E836ED43E0B1
:100E300066E070E089E290E00E94DF05C33009F0CF
:100E400049CFD6E090E4E92E0F2D10E06D2F70E031
:100E50002CE53BE645E08E2D90E00E94DF053CCF7F
:100E6000C33009F037CFD6E085E3E82EEDCF0F93FE
:100E70001F932091DD072130A9F088F02230A9F0DE
:100E80002330B1F0082F10E070E02CE53BE645E0A0
:100E9000892F90E00E94DF051F910F91089567E16F
:100EA0009DE5F0CF68E294E3EDCF67E197E0EACF0C
:100EB00066E0F9CF4F925F926F927F928F92AF92DE
:100EC000BF92CF92DF92EF92FF920F931F93CF9337
:100ED000DF932C01EB013901842E842FB9010E948C
:100EE000B1020E949F02B82E0E949902C034D1051F
:100EF000D4F492012B0D311D232BA9F09E01280F54
:100F0000311D121613067CF492E0690E711C811CCF
:100F100092E0A92E6801082D7301282F4B2DBE01E8
:100F2000C2010E94A505DF91CF911F910F91FF9003
:100F3000EF90DF90CF90BF90AF908F907F906F90A9
:100F40005F904F900895EF92FF920F931F93CF936E
:100F5000DF93E42EF22E2091DE0704E22F3F21F0F2
:100F600009E0209F002D1124C82FD0E0060F0C0FA0
:100F70001D2F111D21E631EE42E060E270E089E6AE
:100F800090E00E945A07EE20A1F08091C007909156
:100F9000C1078C01000F111F080F191F0C0F1D1F17
:100FA0002DEB35E243E063E370E086E790E00E94DA
:100FB0005A07FF20A1F08091BE079091BF078C01D6
:100FC000000F111F080F191F0C0F1D1F2DEB35E20D
:100FD00043E06AE370E086E790E00E945A07DF9101
:100FE000CF911F910F91FF90EF900895EF92FF9294
:100FF0000F931F93CF93DF93E42EF22E90E0663091
:1010000030F02091DB0799E0299F902D1124C82F03
:10101000D0E0092F060F0C0F1D2F111D27E432ED14
:1010200042E070E060E089E690E00E945A07EE201E
:10103000A1F08091BB079091BD07890F8E0193E0CD
:10104000899F000D111D11242DEB35E243E068E06E
:1010500070E086E790E00E945A07FF20A1F080919F
:10106000BA079091BC07890F8E0193E0899F000D0C
:10107000111D11242DEB35E243E06FE070E086E7AF
:1010800090E00E945A07DF91CF911F910F91FF903E
:10109000EF900895CF93DF93FC01DB0111969C91B3
:1010A0001197208585E0EF01289FC00DD11D1124E7
:1010B0009B879085EF01989FC00DD11D11242A9622
:1010C0009C91988314969C9114979C8313969C9161
:1010D0002085DF01289FA00DB11D11241D969C9332
:1010E00080858F5F8087DF91CF910895E5E8F7E0F5
:1010F00020812F5F20832150330B95E0929FB00118
:10110000939F700D1124645F784F27E4829FC00184
:10111000112480519A4F0C944A08FC01A085B0E03C
:1011200030E020E08FEF2A173B0764F492856913C3
:1011300005C09385491710F4822F492F2F5F3F4F29
:101140003596F1CF0895FC01A085B0E030E020E0B5
:101150008FEF2A173B0764F49285691305C09385C6
:10116000941710F4822F492F2F5F3F4F3596F1CF00
:101170000895FC01208580E0281731F0359695818F
:10118000691721F08F5FF8CF80E0089581E008951E
:10119000FC0190E085E02085921748F4DF01989FDC
:1011A000A00DB11D11241C961C929F5FF4CF0895D1
:1011B0000F931F93CF93109299050CED17E0D80170
:1011C0008C91C7E48C9FC001112480519A4F0E94DA
:1011D000C808D801EC91EC9FF0011124E650FA4FB9
:1011E00081E08283CF911F910F910895FC0120E04F
:1011F0003FEF40E0518D651305C0528D451710F447
:10120000322F452F2F5F35962430A1F725E03F3F41
:1012100029F4FC01EC5AFF4F208135E0239F800D1B
:10122000911D112449960895FC01EA5AFF4F20812F
:101230002F3F71F030E02F5F3F4F65E0629FA001CC
:10124000639F500D1124840F951FFC018081089528
:101250008FEF0895CF93DF93EC010E941409982F2C
:10126000898D981769F08E8D981751F08BA198177A
:1012700039F081E028A5291380E0DF91CF9108950E
:1012800081E0FBCFFF920F931F93CF93DF93EC018D
:101290000E941409082FFE01EA5AFF4F808190E056
:1012A000019625E0F22EF89EF001F99EF00D112432
:1012B000EC0FFD1F828181508230A0F4CE010E948C
:1012C0002A098823B1F01FEF90E080E0298D0213F6
:1012D00005C02A8D921710F4922F182F8F5F259634
:1012E0008430A1F7812FDF91CF911F910F91FF9053
:1012F0000895FE01ED5AFF4F8081FE018F9DE00DA4
:10130000F11D1124318D1FEF90E080E0298D321303
:1013100005C02A8D921710F4922F182F8F5F2596F3
:101320008430A1F7DFCF0F931F93082F10919A05F8
:1013300085ED810F833008F083C088E897E00E9434
:101340004209282F8091ED059091EE0560E370E051
:101350000E94382A2D7F213031F4489748F021E04F
:1013600040E069E008C020E041E06CE0489718F4F4
:1013700021E041E066E0802F0E94F6071B3209F46D
:101380005BC08091DE07882319F0823009F042C0EB
:101390008091BA079091BC07890F10E00E94D90094
:1013A0009C018091ED059091EE051130D1F512165A
:1013B0001306CCF160E370E00E94382A20E041E09F
:1013C0006CE04897C8F1802F0E94A3078091DE0748
:1013D0008F3FE9F090E0019625E0289FF001299FDA
:1013E000F00D1124E857F84F808190E09C01220F06
:1013F000331F820F931F080F192F111D25EF30ED9A
:1014000042E069E170E08EE690E00E945A071F9189
:101410000F9108958091BB079091BD07890F11E04E
:10142000BDCF232B39F660E370E00E94382A21E01B
:1014300040E069E0489738F621E041E066E0C3CF3C
:1014400021E041E066E0802F0E94F607F5CFCF93C0
:10145000DF938091DC0727E490E00196EC01C370F4
:10146000DD278C2F2C9FF0012D9FF00D1124EA5CBD
:10147000F94F9081992381F3C093DC0799E290930F
:101480009A059091DB079C133DC088E897E00E9485
:101490004209E82FF0E0E857F84F82A98F5F82AB4E
:1014A00085E08C9FF0018D9FF00D1124EF55F84FD2
:1014B000C08188E897E00E941409E8E8F7E02C2F43
:1014C00030E02857384F4CE957E0918D8C1307C016
:1014D000891739F0D901AE5BBF4F1C9202C0C91306
:1014E000F9CF35962C5F3F4F4E175F0771F788E8AD
:1014F00097E00E9442098093DB078093DC078BE230
:1015000080939A051092EE051092ED058091870563
:10151000811104C0DF91CF910C94D808DF91CF9155
:1015200008951F93CF93DF93EC01162F0E942A0991
:10153000FE018823E1F090E020E08FEF318D13135E
:1015400005C0328D231710F4232F892F9F5F359606
:101550009430A1F78F3F31F195E0899FC00DD11DE7
:101560001124CE014996DF91CF911F910895ED5A34
:10157000FF4F8081FE0195E0899FE00DF11D112450
:10158000418DFE0190E020E08FEF318D431305C0C7
:10159000328D231710F4232F892F9F5F35969430B7
:1015A000A1F7D8CFFE01EC5AFF4F8081D5CFCF9362
:1015B000DF93EC010E941409282FFE01ED5AFF4F22
:1015C000908131968081981741F085E0989FC00DF9
:1015D000D11D112481E0998D921380E0DF91CF918C
:1015E00008950F931F93CF93DF93EC01062F142FD1
:1015F0000E941409982F84E0189FF0011124EC0F29
:10160000FD1F901326C0E90FF11DEE5BFF4F808197
:101610008823D1F08230C1F0E1E0992351F0E0E07D
:10162000913039F0E3E0923021F0E2E0933009F0BC
:10163000EFEFF0E07D96EE0FFF1FEC0FFD1F8081B6
:10164000918193FF0CC082E0DF91CF911F910F91A8
:101650000895E00FF11DEE5BFF4F8081F5CF80E034
:10166000F3CF1F93CF93DF93EC01162F0E94140941
:10167000412F682FCE01DF91CF911F910C94F10A79
:10168000722F203171F4461335C0E42FF0E07D96BF
:10169000EE0FFF1FE80FF91F818183FB882780F978
:1016A00008952F3089F4461325C0413049F030F0B9
:1016B000423041F0433049F742E0E7CF41E0E5CF27
:1016C00040E0E3CF43E0E1CF50E0435E5F4F440FA3
:1016D000551FFC01E40FF51F21E030E002C0220F8E
:1016E000331F7A95E2F7808191812823392381E0A5
:1016F000232B09F480E008959F92AF92BF92CF927E
:10170000DF92EF92FF920F931F93CF93DF936C01C1
:10171000F62EE42EFC0100811181C8010E941409FB
:10172000B82E29E0A22EE110AE2C9EE0992EFB10DF
:1017300002C081E1982EDA2DC0E09D1690F4F601EA
:10174000208530E090E080E082179307DCF442854A
:10175000F41204C04385E41608F4C150019635968E
:10176000F3CFFB1002C0DB3059F0DA1549F02D2F12
:101770004F2D6B2DC8010E94400B811101C0CF5F1E
:10178000DF5FDBCFF801EA5AFF4F9081F6018781D6
:10179000981308C0F80185A5F81204C086A5E816BC
:1017A00008F4C1508C2FDF91CF911F910F91FF90C2
:1017B000EF90DF90CF90BF90AF909F900895DF9211
:1017C000EF92FF920F931F93CF93DF937C01062F2D
:1017D000142F40E0612F0E948D08D82F8F3FF9F021
:1017E000F70185E0D89FE00DF11D1124D384CEE0F0
:1017F000101301C0C0E1CD1590F0101302C0CB3022
:1018000051F02C2F412F602FF701808191810E9490
:10181000400B882311F0C150EECFDC12DFEF8D2F8B
:10182000DF91CF911F910F91FF90EF90DF9008957E
:101830000F931F93CF93DF93FC01C181442311F0D9
:10184000433071F4CC23A9F1FC010081F901E00FD0
:10185000F11D8081F4E18F9FC00D11248C2F20C0D9
:10186000CC2339F18901D081CB30F9F40E94770380
:101870008823D9F0E1E0DD2351F0E0E0D13039F008
:10188000E3E0D23021F0E2E0D33009F0EFEFE00FF7
:10189000F12FF11D8081C4E18C9F802D1124815F87
:1018A000DF91CF911F910F910895F801ED0FF11D78
:1018B000D0CF8FEFF5CF5F926F927F928F929F92F2
:1018C000AF92BF92CF92DF92EF92FF920F931F934E
:1018D000CF93DF9300D000D0CDB7DEB77C01DC0121
:1018E000CD90DC90C6010E941409182FF601EA5A27
:1018F000FF4F2081712C2F3F69F030E02F5F3F4F69
:1019000045E0429FC001439F900D1124C80ED91E8F
:10191000F60172808091230190912401A09125010C
:10192000B091260189839A83AB83BC8360E0C701B1
:101930000E94B908C82E61E0C7010E94B908082FAB
:1019400062E0C7010E94B908D82E63E0C7010E9477
:10195000B908CC2009F42EC1002309F493C0DD207E
:1019600009F4ACC0882349F0111114C093E09983A5
:1019700091E09A831B8292E09C83DD2009F49EC053
:10198000811136C01111C5C082E089831A8281E0BD
:101990008B83C5C0113011F419837EC0123021F43D
:1019A00093E09B8391E0E8CF133039F7198292E0FE
:1019B0009A8391E09B831C83E0CFDD20C9F08823CC
:1019C000B9F0111108C083E0898381E08A831B820A
:1019D00082E08C830DC083E0113009F46CC01230BA
:1019E00009F04BC083E0898381E08A831B831C82DA
:1019F00067018AE0C80ED11C00E00F5F5601A5E028
:101A0000AA1AB108602EB6E06B1609F4A4C045010D
:101A1000EAE08E0E911C9E012F5F3F4F472D612FF4
:101A2000C4010E94180C582E9E012F5F3F4F472D76
:101A3000612FC6010E94180C5816D0F4D6015C9193
:101A400011964C91119713963C91139714962C91E3
:101A5000149712969C91129785E0F40101900D92D3
:101A60008A95E1F7F5015287438735872687948762
:101A70006394F5E0AF0EB11CC6CF133009F0B8CFB8
:101A80001983A3CFDD2009F4B3CF882309F4B0CFA5
:101A9000111104C081E0898383E098CF113009F4EB
:101AA0007BCF123021F481E0898383E09ECF133015
:101AB00009F09ECF81E089831A8389CF882349F07A
:101AC000111115C092E099831A8293E09B8391E0F3
:101AD0009C83002309F48CCF81118ACF111132C06D
:101AE00083E0898382E08A831B8281E072CF113098
:101AF00039F4198282E08A8383E08B831C8378CF58
:101B0000123021F4198292E09A83DFCF1330D1F39F
:101B1000E0CF113031F4198282E08A831B8383E0A5
:101B200058CF123021F4198282E08A8330CF1330EB
:101B3000D1F35ECF133009F05BCF81E08A8382E07E
:101B40008B8356CF113009F053CF82E0898383E035
:101B50008A831B82D3CFF5E0CF0ED11C063009F06B
:101B60004CCFD70118961C92F7019701225E3F4F88
:101B70008385882359F0D70118968C9118978F5F29
:101B800018968C933596E217F30791F70F900F9004
:101B90000F900F90DF91CF911F910F91FF90EF90D9
:101BA000DF90CF90BF90AF909F908F907F906F907D
:101BB0005F900895011101CFDD2009F419CF88232A
:101BC00009F416CF123009F0B5CF81E094CF1F93FE
:101BD000CF93DF93DC0118962C91A22FB0E0FC018B
:101BE0003A9650E040E04A175B0724F51081EB017C
:101BF0003881131324C011813981131320C021505F
:101C0000DC0118962C9318970D90BC91A02D218182
:101C10009E962C939E9720819D962C939D97218133
:101C2000D1962C93D1972081D0962C932FEF20839F
:101C300011821282DF91CF911F910C945B0C4F5F48
:101C40005F4F3596D0CFCF93DF93EC0155E0FC0189
:101C5000659FE00DF11D11243A9680818A83818170
:101C60008B8383818D8384818E8382818C834111D8
:101C700043C0838190E0880F991FA881B981A80F84
:101C8000B91F248181E090E0BC0102C0660F771F7C
:101C90002A95E2F79B01DA968D919C91DB97862B32
:101CA000932BDB969C938E93DA9728813981C90117
:101CB0008C5A9F4FDC018C91D901859FA00DB11DDD
:101CC0001124599680818C93818111968C93119760
:101CD000838113968C931397848114968C93149715
:101CE000828112968C938FEF808311821282CE01B3
:101CF000DF91CF910C945B0CDF91CF910895FC01A3
:101D0000B08530E05FEFAFEFB31769F0728567130E
:101D100007C07385471720F47A1710F4532FA72FA5
:101D20003F5F3596F1CF5F3F31F0422F652F0E9424
:101D3000230E81E0089580E00895AF92BF92CF9284
:101D4000DF92EF92FF920F931F93CF93DF937C016B
:101D5000D62EC42EB22EC0E0DFEF1FEF85E0A82EF6
:101D6000DC16A9F0CC1699F0BC1689F04FEF6C2F59
:101D7000C7010E94A3088F3F51F0F7018A9DE00D33
:101D8000F11D11249385911710F4D82F192FCF5FCF
:101D9000C43031F780E0DF3F31F0402F6D2FC701B5
:101DA0000E94230E81E0DF91CF911F910F91FF9050
:101DB000EF90DF90CF90BF90AF9008958F929F9259
:101DC000AF92BF92CF92DF92EF92FF920F931F9349
:101DD000CF93DF938C01E62EA42E922EC0E025E057
:101DE000822EAC16E9F0D0E099E0F92EEC1203C097
:101DF0002BE0F21659F02F2D4C2F6E2DF80180811B
:101E000091810E94400B811101C0DF2DF394FFE00E
:101E1000FF12ECCF8EEF8C0F823038F4D43049F4BF
:101E2000CF5FC430F1F680E03CC0C23010F4D53052
:101E3000B9F3D15040E06C2FC8010E948D088F3F4C
:101E400079F39801889D200D311D1124F9013A96EE
:101E50006F0189E0F82EB12CDF1590F0EC1203C071
:101E6000FBE0FF1659F02F2D4C2F6E2DF8018081CD
:101E700091810E94400B811101C0BF2CF394ECCFE3
:101E8000F60181818B11CCCF4D2F6C2FC8010E94A0
:101E9000A3088F3F29F2492D682FC8010E94230E05
:101EA00081E0DF91CF911F910F91FF90EF90DF9034
:101EB000CF90BF90AF909F908F900895FF920F9317
:101EC0001F93CF93DF938C01D62FF42EC0E04C2FBD
:101ED0006D2FC8010E94DF0B8F3F61F04F2D682FDF
:101EE000C8010E94230E81E0DF91CF911F910F91D5
:101EF000FF900895CF5FC43051F780E0F5CF1F9376
:101F0000CF93DF93EC01122F0E94DF0B8F3F51F034
:101F1000412F682FCE010E94230E81E0DF91CF91E7
:101F20001F91089580E0FACFCF92DF92EF92FF9257
:101F30000F931F93CF93DF938C01D62EE42EC0E036
:101F4000DFEFFF24FA9485E0C82EDC1689F04FEF0E
:101F50006C2FC8010E94A3088F3F51F0F8018C9D9F
:101F6000E00DF11D112493859F1510F4D82FF92E43
:101F7000CF5FC43051F780E0DF3F31F04E2D6D2F41
:101F8000C8010E94230E81E0DF91CF911F910F9134
:101F9000FF90EF90DF90CF9008951F93CF93DF9342
:101FA000EC01142F4FEF0E94A3088F3F51F0412FF7
:101FB000682FCE010E94230E81E0DF91CF911F9107
:101FC000089580E0FACF2F923F924F925F926F92E6
:101FD0007F928F929F92AF92BF92CF92DF92EF92B9
:101FE000FF920F931F93CF93DF9300D01F92CDB733
:101FF000DEB79B838A83762EFC01F781F9838F2ECF
:10200000912C540122E0A20EB11C33E0A322BB2488
:10201000FC0100811181C8010E941409682E682FFB
:10202000C8010E94F608FC014180F801ED5AFF4FFB
:102030008081E82EF12C95E0292E9801829D200DBB
:10204000311D1124F90179966F015080C8010E9459
:10205000D70A382E2A9CF0012B9CF00D1124E00F9A
:10206000F11F828D882309F440C1FFEF8F1A9F0A68
:1020700023E082229924C8010E944209B82E8A11C5
:10208000F9C08981837033E0E30EF11C93E0E9220B
:10209000FF248E151F0499F5472D332031F0662D4E
:1020A0008A819B810E94CD0F0DC0652D8A819B8105
:1020B0000E94CD0F811124C1472D662D8A819B81FD
:1020C0000E94940F81111CC1472D662D8A819B812E
:1020D0000F900F900F90DF91CF911F910F91FF9074
:1020E000EF90DF90CF90BF90AF909F908F907F90B8
:1020F0006F905F904F903F902F900C94940F3320EF
:10210000B1F1482D662DC8010E94F10A815082303C
:1021100008F0AEC0442D662D8A819B810E947C0B05
:10212000843008F4A5C0442D662D8A819B810E94CD
:102130008D08472D8F3F09F4B2CF682F8A819B818C
:102140000F900F900F90DF91CF911F910F91FF9003
:10215000EF90DF90CF90BF90AF909F908F907F9047
:102160006F905F904F903F902F900C94230EC8017A
:102170000E942A09882381F0472D652D8A819B8141
:102180000E94CD0F8111BCC0272D442D662D8A8160
:102190009B810E947F0E2DC0F601F180F394E12C0B
:1021A000651011C0FFEFFF16E1F02BE0F21649F0C9
:1021B0002F2D462D662DC8010E94400B811101C0B4
:1021C000E394F394EFCF3EE03F1558F02F2D452DCB
:1021D000662DC8010E94400B811101C0E394F39465
:1021E000F2CFE1102BC0472D652D8A819B810E9483
:1021F000CD0F811185C0472D662D8A819B810E945C
:10220000940F81117DC0472D662D8A819B810F908F
:102210000F900F90DF91CF911F910F91FF90EF9052
:10222000DF90CF90BF90AF909F908F907F906F90F6
:102230005F904F903F902F900C94CD0F442D652DC3
:102240008A819B810E947C0B843008F44CC040E062
:10225000652D8A819B810E948D08472D8F3F09F053
:102260006CCF652D8A819B810E94CD0F811148C062
:10227000472D15CF332021F1482D662DC8010E942E
:10228000F10A93E0E90EF11CE3E0EE22FF249981CC
:1022900093709E151F0441F4272D442D662D8A81CD
:1022A0009B810E947F0EE2CF8111F6CF40E0662D28
:1022B0008A819B810E948D088F3F71F3472D3DCF0E
:1022C000C8010E942A09811157CFF801B29CE00D84
:1022D000F11D1124272D428D652D8A819B810E943D
:1022E0007F0E81110DC0472DBCCF3320F9F0272D73
:1022F000462D662D8A819B810E947F0F882361F283
:102300000F900F900F90DF91CF911F910F91FF9041
:10231000EF90DF90CF90BF90AF909F908F907F9085
:102320006F905F904F903F902F900895C8010E944A
:102330002A09882381F0472D652D8A819B810E947F
:10234000CD0F8111DDCF272D442D662D8A819B81F4
:102350000E947F0EB7CE652DC8010E94910A272DDD
:10236000FC014181B9CFFC01238184818450990B08
:10237000FBE02F9F800D911D1124982F990F890F3D
:1023800008952F923F924F925F926F927F928F9219
:102390009F92AF92BF92CF92DF92EF92FF920F93F4
:1023A0001F93CF93DF9300D000D01F92CDB7DEB73D
:1023B000382E6A8380917D06882309F477C02090A7
:1023C0003F069CE0492E512C42185108440C440C05
:1023D00021E4E22E26E0F22ED12CC12C042C000C9C
:1023E0005508632C712C30E3832E912CC982C214C2
:1023F00008F05CC0F7018181882309F44AC080910C
:102400009A05873279F0A0F08952823088F4809161
:10241000DC07813009F044C08281882309F443C07D
:10242000FBE204C08281FFE28111FACFFB8302C08C
:102430008FE28B839B81892F90E09D838C83560153
:1024400083E0AA0CBB1C8A95E1F7A40CB51CC7015C
:102450000E94B3118301080F111DEA81EE2389F058
:1024600080919905F981F8130CC08091ED05909148
:10247000EE05B4010E94382A2EEA3DEC41E048976F
:1024800018F020E138E841E06C817D81C5010E94AF
:10249000DF058FEFC81AD80A95E0E90EF11CA6CF28
:1024A0009FE29B83C7CFEFE2EB83C4CF8091860688
:1024B0008823A1F09091C406992381F0032D10E0A8
:1024C000E3E08E9F000D111D112424E335EC42E062
:1024D00066E070E090E080E00E945A078091CD06AF
:1024E0008823A1F090910B07992381F0032D10E030
:1024F000F3E08F9F000D111D11242CE63DEC42E00E
:102500006DEF7FEF8FE190E00E945A078091F80510
:102510008823A1F090913606992381F0032D10E0D5
:1025200093E0899F000D111D112420E539EC42E054
:1025300066E070E084E690E00E945A070F900F90EA
:102540000F900F900F90DF91CF911F910F91FF90FF
:10255000EF90DF90CF90BF90AF909F908F907F9043
:102560006F905F904F903F902F900895FF920F9340
:102570001F93CF93DF93D82FF62EC42F23E062133F
:102580004AC08091ED059091EE0560E370E00E94F5
:10259000382A489708F43FC08091A7078823A1F004
:1025A00086EA97E00E94B311282F2D0F3327331F9F
:1025B00089016C2F70E06D5E7F4F20E138E841E0CB
:1025C00081E390E00E94DF05F1104BC08091ED05A2
:1025D0009091EE0560E370E00E94382A489708F475
:1025E00040C08091AC07882309F461C08BEA97E072
:1025F0000E94B311282F2D0F3327331F89016C2F11
:1026000070E06B5E7F4F2CE433E142E084E190E0C8
:102610000E94DF054CC08091B1078823A1F080EBB8
:1026200097E00E94B311282F2D0F3327331F890104
:102630006C2F70E0675F7F4F20E138E841E086E271
:1026400090E00E94DF0531E0F312A6CF8091ED0506
:102650009091EE0560E370E00E94382A489708F4F4
:102660009BCF8091A2078823A1F081EA97E00E9486
:10267000B311282F2D0F3327331F89016C2F70E0E2
:10268000635F7F4F20E43CE642E08CE390E00E94F1
:10269000DF0532E0F312A5CF8091ED059091EE05B4
:1026A00060E370E00E94382A489708F49ACFDF91DF
:1026B000CF911F910F91FF9008950F931F93CF9388
:1026C0009091B607992399F0C82F85EB97E00E9467
:1026D000B311282F2C0F3327331F890120E138E84D
:1026E00041E06EE070E08AE190E00E94DF05CF916A
:1026F0001F910F9108951F93CF93DF93EC01162F35
:1027000088818B8389818C838B3041F4CE010E9438
:102710007703882319F018838FE0898389818B30B0
:1027200029F48881181302C080E18983DF91CF9159
:102730001F9108953F924F925F926F927F928F9276
:102740009F92AF92BF92CF92DF92EF92FF920F9340
:102750001F93CF93DF93762E642E8093DE078093B2
:10276000890760938A0740938807C82FD0E0CE017D
:10277000019625E0289FF001299FF00D1124E857CC
:10278000F84F628340832296C370DD2727E42C9F95
:10279000C0012D9F900D11242BEE822E25E0922E4C
:1027A00010E000E0332433949C012A5C394F790116
:1027B00035E0432E32E073121EC0C017D107D9F4A2
:1027C000F70110826401F5E0CF0ED11C512C940169
:1027D0002C5D35405901F4018585581688F4C501F2
:1027E000549C800D911D1124662D85519A4F0E9495
:1027F0007B135394F0CFF401E55BFF4F3082E2CFBF
:10280000C6010E945B0C0F5F1F4FF7E48F0E911CF7
:102810000430110579F62091DD0747E4822F90E01E
:10282000019683709927282F489FF001499FF00D4A
:102830001124EA5CF94F3081332381F38093DB0765
:102840008093DC071092EE051092ED0580E48093F2
:10285000860510929905DF91CF911F910F91FF90FE
:10286000EF90DF90CF90BF90AF909F908F907F9030
:102870006F905F904F903F9008955C98FC01259178
:10288000CF012EBD00000DB407FEFDCF6150B1F7A2
:102890005C9A0895CF93C82F20E040E0662359F05A
:1028A00060E08C2F0E94F60721E041E066E08C2F6B
:1028B000CF910C94A30763E0F4CF2F923F924F92F5
:1028C0005F926F927F928F929F92AF92BF92CF92C0
:1028D000DF92EF92FF920F931F93CF93DF93EC0160
:1028E000B62E6A017C01AC01425E5F4F8C01F8019B
:1028F0008385928590A781A793A784A70B5F1F4F1D
:1029000004171507A1F788858987222349F0F60166
:10291000918120812BA39CA32EA39FA38F5F8887E7
:10292000688570E0712C4B01F1E08F1A910895E0F9
:10293000A92E872D90E0881599050CF04FC040E036
:10294000FB01E81BF90B1F0181E0281A3108A42FB5
:10295000B0E0A215B3050CF03FC04A9D90011124D0
:10296000C9010A968C0F9D1FFC0151814F5F2C0FEE
:102970003D1FF9012089521750F7FC0150804A9DF4
:10298000C00111249C01265F3F4F2C0F3D1FF90110
:1029900061804080AA9E9001AB9E300D1124DE0123
:1029A000A20FB31F1A964C921A971B966C921B9704
:1029B0001D964C921D971E966C92DE01A80FB91FB2
:1029C0001A965C921A971B965C931B971D965C92C5
:1029D0001D971E965C93BBCF7394ABCFA12C85E063
:1029E000982E5885A51660F4CE01A99C800D911DE6
:1029F0001124F60160810A960E947B13A394F1CF03
:102A0000DE0190E040E030E080E0591709F47FC03B
:102A10001B96EC911B97EF3039F0E03161F48C5943
:102A200031E09F5F1596F1CF24E6311101C020E51A
:102A3000820F41E0F6CF1A962C911A97EF3088F763
:102A4000F0E0EB5DFA4E0C94602A7F157F157F1540
:102A50007F157F157F157F158315831583158315C6
:102A600011156C1543153415B2122BC0332339F0F0
:102A7000442319F08C59342FD4CF8A5BD2CF44230E
:102A8000D1F3845CCECFB2121EC0913041F078F009
:102A9000923089F0933009F0C4CF8C59C2CF2B8586
:102AA0002F3039F02031B1F02E3009F0BACF8C5EE2
:102AB000B8CF875EB6CF28892E3061F02F3009F06D
:102AC000B0CF885DAECF992391F315966C91159791
:102AD0002613EDCF825EA5CFB212A3CF9230D1F3F1
:102AE00038F4992391F0913009F09BCF815F99CF11
:102AF000933019F0943089F294CF835D92CFB21263
:102B000090CF8B5F8ECFB2128CCF865F8ACFF701CA
:102B100091A520A52287938725879687F5E0EF0E5C
:102B2000F11C0E151F0599F79985988790E0DF91A4
:102B3000CF911F910F91FF90EF90DF90CF90BF90BA
:102B4000AF909F908F907F906F905F904F903F904D
:102B50002F9008950F931F93CF93DF93809164007C
:102B60008E7F8093640080917A00806480937A00E5
:102B700080917A0086FDFCCFC0917800D0917900D9
:102B80000E945F03AB01BC01CE01B0E0A0E0DC011C
:102B9000992788278C019D01040F151F261F371FB9
:102BA000C901B8012091640021602093640061157F
:102BB00071058105910531F0DF91CF911F910F9142
:102BC0000C94C029DF91CF911F910F9108951F920E
:102BD0000F920FB60F9211248F939F938091E10073
:102BE0009091E100937F9093E10083FF0FC01092DA
:102BF000E90091E09093EB001092EC0092E3909347
:102C0000ED001092980598E09093F00082FF22C0AA
:102C100093E09093E9009091F200992319F09AE3E0
:102C20009093E80090917C01992341F090917C0170
:102C3000915090937C01911101C05D9A90919705FC
:102C4000992341F090919705915090939705911198
:102C500001C0289A84FF18C08091E2008E7E8160B6
:102C60008093E2008091E1008F7E8093E10080916B
:102C70007D018E7E806180937D019F918F910F9069
:102C80000FBE0F901F90189580FFF7CF8091E20044
:102C90008E7E80618093E2008091E1008E7E809341
:102CA000E10080917D018E7E8160E5CF1F920F92C1
:102CB0000FB60F921124CF92DF92EF92FF920F93F3
:102CC0001F932F933F934F935F936F937F938F93B4
:102CD0009F93AF93BF93EF93FF93CF93DF93CDB7C2
:102CE000DEB76C97DEBFCDBF1092E9008091E8009F
:102CF00083FF25C068E0CE0145960E940B0282EF5B
:102D00008093E8008D8987FF39C09091E80090FF9B
:102D1000FCCF982F907609F034C19E894F89588D49
:102D20002F89F88C911131C0803861F580917E0136
:102D30008093F1001092F1008EEF8093E8006C9682
:102D40000FB6F894DEBF0FBECDBFDF91CF91FF91DC
:102D5000EF91BF91AF919F918F917F916F915F9113
:102D60004F913F912F911F910F91FF90EF90DF9026
:102D7000CF900F900FBE0F901F9018959EEF9093DD
:102D8000E800C7CF1092F100D5CF913059F48111EE
:102D9000D3CF4130510581F680917E018D7F8093A4
:102DA0007E01CACF933049F48111C6CF413051051D
:102DB00019F680917E018260F2CF953041F48091C6
:102DC000E80080FFFCCF20682093E300B5CF963069
:102DD00009F0A9C00B8D1C8D22E01092E900109221
:102DE0007A0110927901F2122EC01092780110929D
:102DF00077010E94DA011F8299E09983FA8291E0BB
:102E00009E8390EA98879AEF998720917901309173
:102E10007A01275F3F4F3C832B838D831092E9001B
:102E200010927A0110927901109378010093770142
:102E300049E050E0BE016F5F7F4F80E00E94B40127
:102E40000E94DA0179CF10937801009377010E94F4
:102E50003F01DC0112960D911C910115110509F439
:102E600051C1D801ED91FC910480F581E02DBE01A6
:102E70006B5E7F4FC8010995009709F03EC1F801CC
:102E800000851185EACFF3E0FF120EC08F898823F9
:102E900009F440C0823061F440E867E088E391E0E3
:102EA0000E948101811148CF81E28093EB0047CFDE
:102EB000813029F440E86BE08CE291E0F1CF83307F
:102EC00099F70E943F01DC011296ED90FC908E0173
:102ED0000F5F1F4F6801E114F10479F0D701ED9104
:102EE000FC910680F781E02DB801C7010995080F14
:102EF000111DF701E084F184EECFD8011C92F60198
:102F000001900020E9F73197BF016C197D0940E07D
:102F1000C601C6CF66E171E0FB01449150E080E854
:102F20000E94B40109CF973009F4BECF983021F444
:102F300081E08093F10000CF993009F0FDCE8370DD
:102F400009F0B2CFECE3F1E081E031E096E32191CA
:102F5000222371F08093E9003093EB00DF01119799
:102F60002C912093EC009093ED008F5F873079F7E0
:102F70008EE78093EA001092EA008F89809398058B
:102F8000DBCE8B8D9C8D1092E90010927A0110920D
:102F900079019093780180937701898D811192C096
:102FA0008E899D89913A49F4813209F07DCF47E0BD
:102FB00050E064E071E080E0B3CF913209F074CF6B
:102FC000833269F48F89988DB0E0A0E0809300018E
:102FD00090930101A0930201B0930301ADCE803222
:102FE00069F48091E80082FFFCCF67E084E091E023
:102FF0000E940B028BEF8093E8009ECE823209F094
:103000009BCE8F8980930B01EEEFFFE78591949122
:103010008B3F9C4D51F1E0E0F8E0809104019091EC
:103020000501A0910601B0910701803B9440A105E4
:10303000B105F1F480910B0180FD1AC0EE3F8AE0EA
:10304000F80789F587E797E791838083809160008F
:1030500080937B0188E19BE00FB6F894A89580935C
:1030600060000FBE9093600067CEEEEFFAE0D5CF20
:10307000808191818737974709F05ECEA89580912E
:10308000600088618093600080917B018093600084
:10309000EE3F2AE0F20789F08091FE0A9091FF0A44
:1030A0009183808349CE808191818737980751F23F
:1030B0009093FF0A8093FE0AC5CF1092FF0A1092E8
:1030C000FE0A3ACE0E943F01DC0112960D911C913E
:1030D0000115110509F4E8CED801ED91FC9101909C
:1030E000F081E02DBE016B5E7F4FC8010995811113
:1030F00023CEF80100851185EBCF181619060CF4C4
:103100001BCED2CEF1E0FF12BECE6AE171E004CF59
:103110000F920FB68F939F93EF93FF9380916E0161
:103120008D5F8D3708F08D5780936E01EFE6F1E0EB
:1031300080818E4F808391819F4F918382818F4FB9
:10314000828383818F4F8383E3E7F1E080818F5F08
:10315000808381818F4F818382818F4F828383819E
:103160008F4F83838FB18F6066991C9B88278F3622
:1031700081F480916D01981B963068F0E0E0F8E0F2
:1031800087E78083818388E180936000F09360000B
:10319000FFCF90936D01FF91EF919F918F910FBEA3
:1031A0000F9018951F920F920FB60F9211248F93C4
:1031B0009F9382E496E0909389008093880081E059
:1031C000809384059F918F910F900FBE0F901F9059
:1031D000189510929E0510929D0588EE93E0A0E050
:1031E000B0E080939F059093A005A093A105B093B4
:1031F000A20585E591E090939C0580939B058FEF58
:103200009FEF9093A8058093A7058093880710925D
:10321000890793E090938A0710928C0710928B078E
:1032200094E1E7E2F1E0ADE8B7E001900D929A9504
:10323000E1F71092A3071092A8071092AD07109221
:10324000B2071092B7071092DA071092DB071092BC
:10325000DC071092DD078093DE071092EC051092D8
:10326000EB051092EE051092ED058093EF05E8E175
:10327000F6E081E0DF0194971C92169612961C925C
:1032800012971596EA17FB07C9F79F01225E3F4F79
:1032900012961C92129715962A173B07C9F7868F2C
:1032A000E95BFF4F97E0E433F90721F7EEE0F7E041
:1032B00086E897E0108235968E179F07D9F710920F
:1032C0008407109285070895CDB7DEB76E97DEBFED
:1032D000CDBF789483E084BD83E085BD81E0809399
:1032E0006E00E1E8F0E083E08083E0E881E0808345
:1032F000E1E983E08083E0E981E08083E1EC87E03D
:103300008083E3EC81E08083E0EC82E08083E2EC88
:1033100081E08083EAE787E0808380688083109281
:10332000980510927E0110927D018091D7008160F6
:103330008093D70080EA8093D80089B5806189BDE9
:1033400089B5826089BD09B400FEFDCF81E090E0BF
:103350000E94C4028091D8008F7C80618093D80045
:103360008091E000807F8093E0008091E1008E7E7C
:103370008093E1008DE08093E200559A209A81ECE1
:1033800080937C0081EF85B987EE84B982E38BB9A5
:1033900082EF8AB9769A6E9880EF81BB10BA80E589
:1033A0008CBD81E08DBD0E94D8025F9A0E94D80238
:1033B0005C98E0E4F1E085918EBD00000DB407FE5D
:1033C000FDCFED34C1F75C9A81E88093640001E0A1
:1033D0000093650062E08DE491E00E943D1468E096
:1033E0008FE491E00E943D149FB7F89422E436E008
:1033F000309389002093880013E0109380008BE1C4
:1034000080938100109285001092840080916F005B
:10341000826080936F009FBF5E9AE4E1F0E08FEFDF
:1034200098EF60EF7FEF25913591559145912851A7
:10343000354909F4CA018093810190938201259155
:103440003591559145912851354909F4BA01609358
:103450007F017093800159988BEA0E94BD02599AAE
:103460001092F70588E897E09093F1058093F005B6
:1034700000933E06909338068093370622E020930F
:10348000850690937F0680937E061093CC069093DA
:10349000C6068093C506909387078093860710928F
:1034A000EE051092ED058FEF9FEF9093A8058093A6
:1034B000A7050E94AA15442443949E012F5F3F4F05
:1034C0003F872E8717E4512E5E98F89480918405EB
:1034D000811109C083B7816083BF7894889583B7D1
:1034E0008E7F83BFF2CF10928405789410918A0565
:1034F0002FE741E050E061E070E083E095E00E945A
:10350000920362E089E591E00E943D142FEF47E0CD
:1035100051E061E070E083E891E00E94920362E094
:1035200087E591E00E943D148EEF810F1F5F8E3F73
:1035300030F4809183058F5F8093830510E01093B2
:103540008A055E9A80919A05893008F04DC08630D0
:1035500008F061C0853008F055C0E82EF12CC70195
:10356000880F991F8E0D9F1D00918A05080F192F36
:10357000111D25E93EE645E070E060E090E080E066
:103580000E945A078091ED059091EE050C9761F429
:103590001092EE051092ED053FEFE31AF30A43E0B7
:1035A000E422FF24E0929A050E94AC03882311F1E3
:1035B0008091ED059091EE0501969093EE05809334
:1035C000ED0580918505803218F48F5F8093850525
:1035D0000E94B703882371F080918505803251F4F1
:1035E00085E080939A0506C0893009F473C08E3255
:1035F00008F497C080E090E0892B09F465CF0E9421
:10360000000060CF86E080939A05109285051092A5
:10361000EE051092ED050E94AC03882389F010910D
:103620009A058091ED059091EE0501969093EE0537
:103630008093ED050E94B703163079F0173001F141
:1036400000918A0580919A05863041F1873091F684
:1036500010E02AE53FE545E034C0909185059831BA
:1036600039F483FF05C00E94AA1587E080939A056C
:1036700080918505883120F78F5F80938505E0CFA5
:1036800083FF06C051E05093870599E090939A0517
:1036900082FFEECF1092870589E0E8CF8091ED059B
:1036A0009091EE0599278034910590F49695879531
:1036B00010E063E0869F000D111D112428E53FED09
:1036C00043E070E060E090E080E00E945A0792CF13
:1036D00080E0EECF1092EE051092ED058AE0809327
:1036E0009A051092BF071092BE071092C107109260
:1036F000C0070E94AA150E94712920E43FE140E022
:1037000050E00E94C9296B0188279927611571052E
:103710008105910511F00E94C029D092EC05C0925C
:10372000EB05C0908A050E94AC03882309F4B1C25E
:1037300010919A050E94B703082F2091ED05309152
:10374000EE05C90101969093EE058093ED05E6EF35
:10375000E10FE43208F09DC2F0E0EF54F44E0C9417
:10376000602AD51BE01CE01CE01CE01CE01CE01CF7
:10377000E01CE01C9E1D9E1D9E1D9E1D9E1D9E1DEF
:103780009E1D9E1D9E1D9E1D9E1D9E1D781E821EA1
:10379000C11E0320471F5F1F5020A520E1204223A8
:1037A00052234226BD262A2741271092840780E013
:1037B00095E029E0E0918407E99FF0011124E45F9E
:1037C000F84F8083E0918407E99FF0011124E45FC2
:1037D000F84F2183E0918407E99FF0011124E45F11
:1037E000F84F8383E0918407E99FF0011124E45F9F
:1037F000F84F2483E0918407E99FF0011124E45FEE
:10380000F84F1282309184073F5F309384072F5F17
:103810002F3081F68F5F843061F61092850710E0BB
:10382000F5E0FF2E80918407181708F051C090E052
:10383000B0E0A0E0812E912CB12CA12C8816990625
:10384000AA06BB0614F59C01AD01281939094A09DD
:103850005B09288B398B4A8B5B8B232B242B252BE5
:1038600061F00E947129288939894A895B890E94FF
:10387000C929688B798B8A8B9B8B88899989AA89BE
:10388000BB89880E991EAA1EBB1EF19E90011124B1
:10389000245F384FF901DE0111968F2D01900D92B2
:1038A0008A95E1F7F89CC0011124845F984FFC01D0
:1038B000D9012F2D01900D922A95E1F7FE01319645
:1038C000DC018F2D01900D928A95E1F71F5FAACF41
:1038D0001092EE051092ED058BE080939A058FEF24
:1038E0008093DE071092DB071092DC078093890734
:1038F00093E090938A078093880710928C07109228
:103900008B07E8E8F7E022EC37E06AEB77E080E04D
:1039100053E04FEF92E086835783458311861086EC
:10392000418F128E138ED9011D921D929D01DB01D4
:103930001D92BD011F969C931F9753969C9353977E
:1039400057969C9357975B969C938F5F35968430E0
:1039500011F74093B5071092B6071092B70710926F
:10396000DA07ABEEB5E027E037E09FEFFD0186E038
:103970009787108A118A95A716A617A681503596A3
:103980008111F6CF1D961C921D97FD01E55BFF4F3F
:103990004082A95BBF4F2A173B0741F78091DD07A3
:1039A0008F5F83708093DD07282F30E02F5F3F4FBC
:1039B0002370332720938905811102C00E94D6030A
:1039C00003FF04C080E280939A0563C1F0909A05DA
:1039D00015EF1F0DB2E100E0BF1508F40EE142E063
:1039E000602F81E00E94C703181708F46CC090E0B4
:1039F00001961817190611F00CF065C020910F01FF
:103A000030911001E0911701F0911801E217F307CE
:103A10000CF04DC08091110190911201609119013B
:103A200070911A01861797070CF041C0409113015D
:103A300050911401240F351F3093100120930F0172
:103A40004091150150911601840F951F909312011A
:103A50008093110140911B0150911C01A0911D0107
:103A6000B0911E014A0F5B1F50931C0140931B0134
:103A7000E217F3071CF486179707CCF081E00E9449
:103A8000760887E396E00E945B0CF394F0929A0527
:103A90001092EE051092ED0542E0602F81E00E9449
:103AA000C703811720F080913F060E94D6038091C2
:103AB0009A05833109F0EDC08091DD078111E9C0DD
:103AC0000E94D603E6C0D12CE12EF12C5701EFEF76
:103AD000AE1ABE0AF1E0DF1202C0E2E0DE2E42E0E2
:103AE000602F8D2D0E94C703181718F190E00196E2
:103AF0008E159F05F4F08091ED059091EE050697E7
:103B0000C1F490909A058D2D0E947608939490921E
:103B10009A051092EE051092ED0542E0602F81E0CB
:103B20000E94C7038A151B0421F480913F060E945E
:103B3000D603D39424E0D212CDCFB9CF03FD42CF28
:103B400075EFB72EB10E43E068E081E00E94C70335
:103B5000B81608F464C0EB2CF12C90E002968E1598
:103B60009F050CF45CC020910F0130911001E09191
:103B70001701F0911801E217F3070CF08AC0809149
:103B80001101909112016091190170911A0186172B
:103B900097070CF07EC04091130150911401240F3F
:103BA000351F3093100120930F0140911501509162
:103BB0001601840F951F909312018093110140917B
:103BC0001B0150911C01A0911D01B0911E014A0FD3
:103BD0005B1F50931C0140931B01E217F30724F471
:103BE000861797070CF455C081E00E94760887E39A
:103BF00096E00E945B0C1F5F10939A051092EE05F1
:103C00001092ED0543E068E081E00E94C70390E078
:103C100001968E159F05ECF180913F0651CFD12C76
:103C20000B2D10E078013FEFE31AF30A41E0D412C4
:103C300002C062E0D62E43E068E08D2D0E94C703EB
:103C4000B81618F190E0029680179107F4F0809171
:103C5000ED059091EE050697C1F4A0909A058D2D83
:103C60000E947608A394A0929A051092EE051092F5
:103C7000ED0543E068E081E00E94C7038E151F0454
:103C800021F480913F060E94D603D39454E0D512CC
:103C9000CDCF10919A051B50133208F0ABCCE12F19
:103CA000F0E0EB5AF14E0C94602A58275827582719
:103CB000582758275827582758275827582758270C
:103CC00058275827582758275827582758275827FC
:103CD00058275827FA1AD027D027FA27032803286D
:103CE00043285B28A828BA28BA28C428C428CF2883
:103CF0001092EE051092ED0581E280939A050E94E4
:103D00005C04C7CF8091F805853020F480E00E94E4
:103D10007608F8CF80913F06853020F481E00E943C
:103D20007608F8CF80918606853020F482E00E94E4
:103D30007608F8CF8091CD06853020F483E00E948C
:103D40007608F8CF8091B607811102C00E945C040A
:103D50001092EE051092ED0581E280939A0580EFB6
:103D600095E00E945B0C87E396E00E945B0C8EE777
:103D700096E00E945B0C85EC96E00E945B0C80E074
:103D80009FCEF09089050091DD0761E0F61609F4F9
:103D900051C0489709F07DCFAF2CB12C21E0F01233
:103DA00020E0F59CC001112445EB57E06091B50778
:103DB00080519A4F0E945D14883C9105B8F0059D92
:103DC0008001112465EB77E0C80180519A4F0E9471
:103DD0004A080D5E194FD80112964C924091B507D2
:103DE00062E08F2D0E949A1387E2EDCD863991050E
:103DF00090F0059D8001112465EB77E0C8018051AA
:103E00009A4F0E944A08F801ED5EF94F42824091B4
:103E1000B50761E0E6CFBFEFAB1ABB0A85E08A9D2C
:103E2000F0018B9DF00D1124E857F84F12820E948B
:103E30001B042FCF809187058823E9F021E0013012
:103E400009F020E045EB57E06091B50787E396E085
:103E50000E945D149C0190910C012639310588F077
:103E6000283C310550F0283E334058F490930D0122
:103E700083E080930C0182E2A6CD90930D0182E055
:103E8000F8CF90930D01F1E0F0930C01F4CF803462
:103E9000910508F4FECE83E080938F07809394070A
:103EA0008093990780939E071092B6078FEF8093B7
:103EB000B5071092EE051092ED0584E284CDD09006
:103EC000890528E0AE85BF851D922A95E9F7B1E006
:103ED000DB1609F44BC0489709F0DBCE0D2D10E03E
:103EE000D59CC0011124FC01E051FA4F7F019E01D5
:103EF0002F5F3F4F59014901712C1B8679861A8625
:103F000020E0AE01475F5F4F672DC7010E945D143F
:103F1000D4018D939D934D017394B4E07B12EDCF4A
:103F20004FEF90E080E020E0F501619171915F0139
:103F30008617970710F4422FCB012F5F2430A1F78B
:103F400062E0883C910520F48639910530F061E00B
:103F50008D2D0E949A1388E236CD0F5F1F4F85E0AA
:103F6000809FF001819FF00D11245ECF8091870525
:103F70008823D9F18E010F5F1F4F7801D12C1B864A
:103F8000D9861A8620E0AE01475F5F4F6D2D87E32B
:103F900096E00E945D14D7018D939D937D01D3948B
:103FA000B4E0DB12ECCF3FEF90E080E020E0F801DE
:103FB000419151918F018417950710F4322FCA0156
:103FC0002F5F2430A1F720910C0186399105A8F0CC
:103FD000883C910560F0883E934078F430930E0160
:103FE00020930D0183E080930C0185E2ECCC3093AB
:103FF0000E0120930D0182E0F6CF20930D0121E008
:1040000020930C01F2CF07FF0BC080910C019EEFB3
:10401000980F923008F03DCE815080930C0139CE3C
:1040200004FF09C080910C019FEF980F923008F0B7
:1040300030CE8F5FF2CF03FF2CCE80910C019EEF2C
:10404000980F923048F0813009F023CE10929407F7
:1040500081E280939A05EBCE0091DD07059D8001FA
:10406000112465EB77E0C80180519A4F0E944A08FD
:10407000F801ED5EF94F42824091B50780910C0145
:10408000823059F0833021F0813021F41E8E02C03D
:1040900032E03E8F6E8D81E0A5CE51E05E8FFACF8B
:1040A0008034910508F4F5CD07FF11C080910C0113
:1040B000811109C080910E01833008F0EACD8F5F35
:1040C00080930E01E6CD823008F0A6CFE2CD04FF4A
:1040D0000FC080910C01811107C080910E018823CF
:1040E00009F4D7CD8150ECCF833008F0D2CDA1CFE9
:1040F00005FF04C080910C01811111C006FD14C0A0
:1041000003FFC7CD80910C019EEF980F9230A8F06D
:10411000813009F0BECD1092940784E29ACF80934B
:104120000D0110920C01B5CD80910C018111E8CFE9
:1041300080910D0110920D0170CF40910E0161E050
:10414000833009F462E081E004CF83709927892BE2
:1041500009F09FCD8091F805882309F1EBEEF5E099
:1041600090E080E045E03FEF25852150DC01249F71
:10417000A00DB11D1124A650BA4F3C9311961C926C
:10418000119712961C92258521502587E95BFF4FD8
:10419000895B9F4F8C3161E0960731F77ACD1092A1
:1041A000100110920F011092180110921701109235
:1041B00012011092110110921A01109219018AE055
:1041C00002CC8090DD0781E0881291C08091DE07EB
:1041D000833021F480918A07823089F0011120C058
:1041E00080918605882309F454CD815080938605FB
:1041F00081114FCD87E396E00E94C8084ACD109206
:10420000DA071092B6078FEF8093B5078091870584
:10421000811102C00E94D80888E280939A05E0CFFD
:1042200080918605882331F01092860587E396E019
:104230000E94C808003241F480919905882381F2D8
:10424000815080939905CCCF003461F48091990519
:1042500020913F062150330B821713060CF0C0CF7C
:104260008F5FEFCF003809F0D6C787E396E00E9452
:10427000C808E091990595E0E99FF0011124EF5BF2
:10428000F94F4282ADCFE0919905A5E0EA9FF00198
:104290001124EF5BF94F8281882309F4A1CF1282A8
:1042A0009FCF813009F09CCF1092DA071092B607A9
:1042B0008FEF8093B50710E005E0FF24FA9480911A
:1042C0003F06181708F0A2CF109FF0011124EF5BF2
:1042D000F94F8281882349F0F0821182128287E3AC
:1042E00096E00E945B0C00933F061F5FE8CF809131
:1042F0008A078230C9F48091DE0790E002968370CD
:1043000099278816190681F41092DA071092B607D9
:104310008FEF8093B50780918705811102C00E94BD
:10432000D80888E280939A058091ED059091EE057A
:104330008F739927892B09F0ACCC1092DA07109271
:10434000B6078FEF8093B507082D10E0859C4001DC
:104350001124F401E051FA4F7F01940125513A4FA5
:10436000398B288BD9011596AD90BC90C5010E9460
:104370001409D82EF701878190E09C012D5F3F4FF3
:10438000237033272F5F3F4F45E0429FF001439F4B
:10439000F00D1124EA0DFB1D6080FFEF6F1210C0BD
:1043A0000196837099270196489F9001499F300D8F
:1043B0001124A20EB31ED5016C906F1201C0612CA6
:1043C00041E04D0D2D2C312CB3E02B0E311C509EB5
:1043D000B001519E700D112468507A4F421513049C
:1043E00011F00CF0A8C0E42FE3707E2EDB018C915D
:1043F00090E0E889F98930E020E050E0281739079B
:1044000044F4A7857A1201C05F5F2F5F3F4F359656
:10441000F5CFA889B98930E020E0B12C28173907F9
:104420008CF41F96EC911F977E1208C05096EC9169
:104430005097F0E0EE5BFE4FE081BE0E2F5F3F4FE6
:104440001596ECCF513009F074C0BCE0BB1508F4F0
:1044500070C0D71028C0EFEFEC8B612C509EC001CC
:10446000519E900D112485519A4F5C012DE0A20EB2
:10447000B11C1C0135E0230E311CD71017C04BE0D6
:10448000641214C063945C895615B8F7C7010E9482
:104490005B0C80918705811102C00E94D808809131
:1044A0009A058F5F90CAFEE0FC8BD7CF08891989E7
:1044B000912C812CD5018C9188151904A1F19CF1C6
:1044C000F8019785791225C09089961122C08150F4
:1044D0008C93D101ED91FC91D80150968C9150971D
:1044E00086A71F968C911F9785A750968C91509701
:1044F00081AB1F968C911F9780ABEFEF1F96EC93CB
:104500001F9750961C92509751961C92C7010E947B
:104510005B0C0B5F1F4FD5018C918A3021F0BFEFF0
:104520008B1A9B0AC7CFF50180818A3009F0AACF88
:10453000ADCF4F5F53CFBB24B394262C312CF3E087
:104540002F0E311C509EC001519E900D11249C01D4
:1045500028503A4F3F8B2E8BA401415F5F4F598FFC
:10456000488F09E010E08B2D90E09B8F8A8F0C8B99
:10457000762CA12CAA8DBB8DA00FB11FBD8FAC8F47
:104580007214130411F00CF041C0672D6370D6163D
:10459000D9F1BC89BF30C0F5E1E0AE1609F479CF9E
:1045A000AE89BF894C9150E0E889F9898A2D30E0C5
:1045B00020E02417350744F49785691301C08F5F05
:1045C0002F5F3F4F3596F5CF8B111EC04FEFC701C0
:1045D0000E94A3088F3FC1F0688D798DB5E08B9F55
:1045E000600D711D112465517A4FFB018181FC8999
:1045F0008F130AC02C8D3D8D2F30310529F0C70156
:104600000E94E70DAA24A3947394BACF31E0A316B5
:1046100009F43FCF0F5F1F4F0131110509F0A7CFFC
:10462000B39446E0B4129DCFC7010E945B0C0FEF1C
:10463000DD24DA9410E055E0B52E4FEF612FC7016D
:104640000E94A3088F3F61F0F4018B9DE00DF11DE6
:104650001124E650FA4F91819D1510F4D92E082FA0
:104660001F5F143051F70F3F09F410CFB40155E02C
:10467000059F600D711D112466507A4FC7010E947D
:10468000E70D04CF8F739927892B09F002CB809116
:10469000DA078F5F8093DA071092EE051092ED052E
:1046A00089E291C96091DC07688B489719F0613005
:1046B00009F0EFCA11E08889813009F010E0B8896B
:1046C000AB2FB0E0BD8BAC8B8091DE0790E0019604
:1046D00045E0642E689EF001699EF00D1124E857B4
:1046E000F84F22812C8F3889359DC0011124AC01EF
:1046F00040515A4F7A018091DB0738132BC2DA01FF
:1047000017960C91802F90E09C012E5F3F4FF9018E
:10471000E370FF27FF8BEE8BFE89FA8F4C0123E0BD
:10472000820E911C33E08322992401961C0143E000
:10473000242233248C899D89589EF001599EF00DC6
:104740001124E551FA4FDF011596B98FA88FA58086
:10475000B680C5010E941409D82E689CF001699C9E
:10476000F00D1124EA0DFB1D718C629CF001639C1D
:10477000F00D1124EA0DFB1D618CF501EA5AFF4F83
:104780008081BC8DB13009F044C1801799F0EA8D69
:104790008E1781F0212F4D2D6D2DC7010E947F0FA7
:1047A000882309F49FC0F889F13009F449C20E94B6
:1047B000270A6FCAF501EE5AFF4F80818130C9F494
:1047C000412F6D2DC7010E945E0F8111ECCF212F6B
:1047D0004D2D6D2DC7010E94DE0E8111E4CF012FFA
:1047E000262D472D6D2DC7010E949D0E8111DBCF17
:1047F00064C0682DC5010E94310B082F622DC501D0
:104800000E94310B982E6E89C5010E94310BB82E83
:10481000011102C09920B9F0212F4D2D6D2DC70136
:104820000E947F0F8111BFCFBB2051F24AE06D2D56
:10483000C7010E94A3088F3F19F2412F682FC701BB
:104840000E94230EB0CF412F6D2DC7010E945E0F35
:104850008111A9CF212F4D2D6D2DC7010E94DE0E94
:104860008111A1CF012F262D472D6D2DC7010E944B
:104870009D0E811198CFBB2039F04AE06D2DC70104
:104880000E94A3088F3FC9F600E02C893D89529E03
:10489000C001539E900D1124AC0140515A4F5A0152
:1048A0004A8D602FD5018D919C910E94F10A815013
:1048B000823080F00F5F043099F7412F6D2DC701D2
:1048C0000E94940F81116FCF412F6D2DC7010E945F
:1048D000CD0F69CF412F602FC7010E94CD0F8823D4
:1048E00049F361CFB12CA12C220C331C220C331CB8
:1048F0003401660C771C660C771C4A2DA88DB98D87
:10490000ED91FC91DF01A20DB31DAA0DBB1DAE5BA5
:10491000BF4F8C91E60DF71DEA0DFB1DEE5BFF4FBF
:104920009081911153C0811151C0BFEFAB1ABB0AE6
:10493000E4E0AE16B10409F7B12CA12C2C893D8915
:10494000529EC001539E900D1124AC0140515A4F0C
:104950004A01D4018D919C91FC01E20DF31DEA0DF9
:10496000FB1DEE5BFF4F2081FC01E60DF71DEA0DFC
:10497000FB1DEE5BFF4F8081882389F1BFEFAB1AEF
:10498000BB0AE4E0AE16B10421F72C893D89529EA2
:10499000F001539EF00D1124E551FA4F8581968167
:1049A0002E893F892F5F3F4F45E0429FF001439F93
:1049B000F00D1124E80FF91F00810F3FD9F4212FCA
:1049C0004D2D6D2DC7010E94DE0E10CF212F6D2DB4
:1049D000C7010E947F0F882309F4A7CFE4CE2111DD
:1049E000CDCF212F4A2D6D2DC7010E947F0F882327
:1049F00029F2D9CE4E89602F0E94F10A815082306F
:104A0000F0F6412F602FC7010E94CD0F8823B9F225
:104A1000CACE801709F463C03A8D831709F45FC0CA
:104A2000212F4D2D6D2DC7010E947F0F8111BBCE0F
:104A3000B12CA12C688C798CA401440F551F440F14
:104A4000551F5F8B4E8B4101880C991C880C991C5B
:104A50004A2DD301ED91FC91AE89BF89AE0FBF1FE6
:104A6000AA0DBB1DAE5BBF4F8C91811156C0E80DE6
:104A7000F91DEA0DFB1DEE5BFF4F808181114DC0DA
:104A8000BFEFAB1ABB0AE4E0AE16B10409F7B12CD4
:104A9000A12C2C893D89529EC001539E900D11245A
:104AA000AC0140515A4F4A013101660C771C660C2B
:104AB000771CD4018D919C91EE89FF89E80FF91F35
:104AC000EA0DFB1DEE5BFF4F2081222379F1BFEF42
:104AD000AB1ABB0AE4E0AE16B10459F770CFF5018A
:104AE000EE5AFF4F8081813009F46ACE682DC501EE
:104AF0000E94310B082F622DC5010E94310B01115C
:104B000003C0882309F45CCE212F4D2D6D2DC701E4
:104B10000E947F0F811147CE53CE212F6D2DC701EB
:104B20000E947F0F882309F4ABCF3DCEFC01E60D38
:104B3000F71DEA0DFB1DEE5BFF4F80818111C7CF92
:104B4000212F4A2D6D2DC7010E947F0F882309F464
:104B5000BECF29CEFC8DF13029F4612FCA010E940D
:104B6000E30F21CE2C893D89529EF001539EF00D1A
:104B70001124E551FA4FA580B680C5010E941409A1
:104B8000082F682FC5010E94F608DC0111969C9041
:104B9000C5010E94D70A882399F0212F402F602F4A
:104BA000C7010E947F0F8111FECD212F492D602F5B
:104BB000C7010E947F0E8111F6CD412F602F19C0D1
:104BC000F501ED5AFF4F8081F501869DE00DF11D45
:104BD0001124D18CC5010E942A098823A9F0212F14
:104BE000492D602FC7010E947F0E412F6D2D81112D
:104BF000DACDC7010E94CD0F8111D5CD412F602F95
:104C0000C7010E94940FCFCD6D2DC5010E94910A5E
:104C10005C01212F4D2D602FC7010E947F0F811154
:104C2000C2CD212FF50141816D2DC7010E947F0E5C
:104C30008111B9CD412F6D2DC7010E94CD0FBBCF82
:104C4000809187058823D9F087E396E00E94C80801
:104C500090913F062091390630913A06E1E4F6E062
:104C600080E0981761F04081421303C041814317EF
:104C700019F08F5F3596F5CF4282809399058AE2CD
:104C80000C94E31C0032B9F4E0919905EE2311F481
:104C90000C94491E1FEF1E0F1093990587E396E0B1
:104CA0000E94C80825E0129FF0011124EF5BF94F24
:104CB00042820C94491E0034F9F4E0919905A091C8
:104CC000DC07A59DD0011124A051BA4F18968C91F4
:104CD0008150990BE817190614F00C94491E11E045
:104CE0001E0F1093990587E396E00E94C80835E0EF
:104CF000139FF0011124DACF083011F00C94491EF3
:104D0000F09099050091DC07059D8001112425E0B4
:104D1000D801F29EA00DB11D1124A650BA4F1296D3
:104D20008C911297882311F40C94491E00511A4F4C
:104D30008091DE0790E00196289FF001299FF00DF9
:104D40001124E857F84F8281813089F4E091DB0724
:104D5000E29FF0011124EF55F84F60818C916817A4
:104D600031F0C8010E94B90881110C94491E40E03D
:104D70006F2DC8010E94230E1ACD8091DA0785306D
:104D800009F04AC08091DE078823B1F18230A1F199
:104D90000091BB078091BD07080F11E0802F0E9492
:104DA000D900982F811131C0033068F1053079F1B5
:104DB000E12FF0E07B96EE0FFF1FE857F84F2081C0
:104DC0003181280F311D318320831425E12FF0E03C
:104DD0007B96EE0FFF1FE857F84F20813181290F96
:104DE000311D243F41E03407A4F08AEE91E0918325
:104DF00080838CE20C94E31C0091BA078091BC077D
:104E0000080F10E0CBCF92E0D3CF90E0D1CF94E069
:104E1000CFCF31832083EDCF03FD02C00C94491E18
:104E20008FEF8093A1071092A2071092A30780939F
:104E3000A6071092A7071092A8078093AB071092BD
:104E4000AC071092AD078093B0071092B107109293
:104E5000B20781C88091BE079091BF070A9754F4AA
:104E60008091C0079091C1070A9724F403FDA7C958
:104E70000C94491E8DE280939A05109288050C943B
:104E8000491E285731092F33310528F480918805B0
:104E90008F5F8093880503FD02C00C94491E8091AA
:104EA00088058D3310F40C94491E85E00C94E31CA6
:104EB00060E08C2D0E94C1118C2D0E945D138C2D01
:104EC0000E94370761E08C2D0E944A14A0900F01C8
:104ED000B090100180911701909118018A159B05DF
:104EE00014F00C94FA1AE0901101F09012018091E4
:104EF000190190911A01E816F90614F00C94FA1AA7
:104F000042E060E081E00E94C703181730F090E0B3
:104F100001961817190691F08CF043E068E081E0E3
:104F20000E94C703181710F40C94FA1A90E0029626
:104F30001817190619F014F00C94FA1A80911B0135
:104F400090911C0197FD0F96A4E095958795AA95E1
:104F5000E1F764E20E942C2A0C2D10E0A3E09A9F56
:104F6000000D111D1124F7FE03C0BFE0EB0EF11C74
:104F7000F4E0F594E794FA95E1F7B701645071090C
:104F8000C501B7FC0F96E4E095958795EA95E1F7A2
:104F900020E839E443E005970E94DF050C94FA1AF3
:104FA0008C2D0E945D1360E08C2D0E94C11160E089
:104FB0008C2D0E944A14809189058130B1F40091B2
:104FC0000C01802F90E08C01000F111F080F191F9A
:104FD0000C0D111D0350110924EC30EC43E06FE07F
:104FE00070E08DE290E00E94DF058C2D0E942D067E
:104FF0000C94FA1A60E08C2D0E94C11160E08C2D97
:105000000E944A14F2CF8C2D0E945D1360E08C2D1B
:105010000E94C11160E08C2D0E944A148091890584
:10502000813019F7EC2CF12C00910C01802F90E0CD
:105030008C01000F111F080F191F0E0D1F1D28E2F4
:1050400038EC43E06FE070E08DE190E00E94DF0516
:1050500080910C0100910E0110E0811111C0C80176
:10506000880F991F080F191F0E0D1F1D2AEA35ED15
:1050700043E067E170E082E290E00E945A07B5CF1A
:105080000C5F1F4FECCF0C2D10E02CE73BE645E00A
:1050900063E170E082E290E00E945A0760E08C2DAC
:1050A0000E94C1118C2D0E942D0660E08C2D0E9463
:1050B0004A140C94FA1A8091DD07813081F58091B1
:1050C000DE07833021F480918A07823059F00C2D5D
:1050D00010E02CE53CE645E06FE070E085E190E013
:1050E0000E945A0761E08C2D0E94C1118C2D0E94F4
:1050F00093098C2D0E942D068091DD078230A1F04E
:105100008330E1F081110C94FA1A0C2D10E02EEA94
:105110003EED43E06DE070E08CE590E03DCF8C2DFE
:105120000E94370760E0DFCF0C2D10E024E03EED59
:1051300043E06EE070E086E090E02ECF0C2D10E0B2
:105140002CEB3CED43E066E070E089E290E024CF98
:1051500060E08C2D0E94C11140E06FEF8C2D0E9409
:10516000B6128C2D0E9493098091DA0781110C945C
:10517000FA1A3BCF60E08C2D0E94C11140E06FEF26
:105180008C2D0E94B6123CC060E08C2D0E94C11193
:1051900088E897E00E94420940E0682FF1CF109123
:1051A00088051123A9F3412F6FEF8C2D0E94B612B1
:1051B0008091ED059091EE056CE870E00E94382A30
:1051C0008034910510F5969587952C2D30E0F901E6
:1051D00043E0849FE00DF11D1124A12FA753BB0BC9
:1051E000BD012091C0073091C1078F012A303105E0
:1051F00074F027E93EE945E080E190E00E945A071B
:105200008C2D0E9493090C94FA1A80E0DECF29E5D8
:1052100037E446E0F1CF003109F435C8083011F029
:105220000C94F02040913F062BEE35E090E080E0BA
:10523000491709F436C8F901E85AFF4F5081511156
:105240008F5F9F5F2B5F3F4FF3CF8F929F92AF9205
:10525000BF92CF92DF92EF92FF92CF93DF93EC0158
:10526000688179818A819B8161157105810591052C
:1052700021F464E279ED8BE597E02DE133EF41E035
:1052800050E00E94C92949015A019B01AC01A7EADB
:10529000B1E40E94E8296B017C01ACEEB4EFA501FA
:1052A00094010E94F629C60ED71EE81EF91EF7FECD
:1052B00006C081E0C81AD108E10880E8F80AC8826F
:1052C000D982EA82FB82C701B6019F77DF91CF9135
:1052D000FF90EF90DF90CF90BF90AF909F908F9016
:1052E00008958F929F92AF92BF92CF92DF92EF92EA
:1052F000FF9260911F017091200180912101909196
:105300002201611571058105910521F464E279EDB1
:105310008BE597E02DE133EF41E050E00E94C92991
:1053200049015A019B01AC01A7EAB1E40E94E829B6
:105330006B017C01ACEEB4EFA50194010E94F6294B
:10534000C60ED71EE81EF91EF7FE06C081E0C81A79
:10535000D108E10880E8F80AC0921F01D09220012C
:10536000E0922101F0922201C701B6019F77FF90E0
:10537000EF90DF90CF90BF90AF909F908F90089567
:1053800060931F017093200180932101909322016B
:105390000895052E97FB1EF400940E94E02957FD06
:1053A00007D00E94FB2907FC03D04EF40C94E0299F
:1053B00050954095309521953F4F4F4F5F4F089541
:1053C00090958095709561957F4F8F4F9F4F089571
:1053D0000E941D2AA59F900DB49F900DA49F800D43
:1053E000911D11240895B7FF0C94E8290E94E82923
:1053F000821B930B0895A1E21A2EAA1BBB1BFD0171
:105400000DC0AA1FBB1FEE1FFF1FA217B307E407A3
:10541000F50720F0A21BB30BE40BF50B661F771FFB
:10542000881F991F1A9469F76095709580959095DB
:105430009B01AC01BD01CF010895A29FB001B39FB4
:10544000C001A39F700D811D1124911DB29F700D8D
:10545000811D1124911D0895991B79E004C0991FA5
:10546000961708F0961B881F7A95C9F780950895BE
:10547000AA1BBB1B51E107C0AA1FBB1FA617B7077A
:1054800010F0A61BB70B881F991F5A95A9F7809596
:105490009095BC01CD01089597FB072E16F400945A
:1054A00007D077FD09D00E94382A07FC05D03EF4CA
:1054B000909581959F4F0895709561957F4F0895C0
:1054C000EE0FFF1F0590F491E02D0994F894FFCFA3
:1054D000FFFFFFFF00E100000000000001010000ED
:1054E00000000000000000000000000000B001010A
:1054F00000000000020103FF00030000FF000300A2
:1055000000FF00030000FF0003000000C1808100D5
:105510000000000102030405060708090A0B0C0D30
:105520000E000000001802DC0239022E027F023D4C
:04553000025B020018
:00000001FF
