:100000000C94AF000C94D7000C94D7000C94D7003C
:100010000C94D7000C94D7000C94D7000C94D70004
:100020000C94D7000C94D7000C944A160C94B91673
:100030000C94D7000C94D7000C94D7000C94D700E4
:100040000C94D7000C9435190C94D7000C94D7005D
:100050000C94D7000C94D7000C94D7000C94EB1898
:100060000C94D7000C94D7000C94D7000C94D700B4
:100070000C94D7000C94D7000C94D7000C94D700A4
:100080000C94D7000C94D7000C94D7000C94D70094
:100090000C94D7000C94D7000C94D7000C94D70084
:1000A0000C94D7000C94D7000C94D7002C00360089
:1000B0003000300034003000380030003C003000A8
:1000C0004000300044003000480030004C00300058
:1000D00050003000080B000202020000090400007A
:1000E00001020200000524001001052401010104A1
:1000F00024020605240600010705810310004009BB
:10010000040100020A000000070502024000000787
:100110000583024000000403090412010002EF02FB
:1001200001404123368000010102030141726475E0
:10013000696E6F204C4C430041726475626F7900A8
:10014000D5F08D14A1C881CFD9F1AF2000DB20C03C
:10015000A0D92181FFA800A800A83F004C191124B4
:100160001FBECFEFDAE0DEBFCDBF11E0A0E0B1E00F
:10017000ECEAF7E502C005900D92A436B107D9F775
:1001800027E0A4E6B1E001C01D92A23EB207E1F76C
:1001900010E0CFEAD0E004C02197FE010E94CE2BF0
:1001A000CE3AD107C9F70E94C7190C94D42B0C94EE
:1001B000000090911E01923041F0933061F0913037
:1001C00019F4811110921E0108958130D9F381E054
:1001D00080931E0108958230D1F382E0F9CF90918F
:1001E0001E01913051F018F0923059F0089581308D
:1001F00031F081E080931E010895823021F082E089
:10020000F9CF8330C9F383E0F5CF2091E10730E0E7
:100210002F5F3F4F95E0929FF001939FF00D1124C7
:10022000E557F84F9281913019F0923051F00895CE
:10023000833080F0853088F0853061F482E090E092
:100240000895833038F0853040F0853019F484E02B
:1002500090E0089590E080E0089581E090E00895B6
:10026000FC0180919B05882311F13FB7F89482E04F
:100270008093E9002091F200822F90E01816190671
:1002800014F481E090E0882339F0289844E6409304
:100290009A054091F1004083222339F02091F20029
:1002A000211103C02BE62093E8003FBF08958FEF94
:1002B0009FEF08952FB7F89483E08093E900909121
:1002C000E800892F807295FF04C09091F20080E4CD
:1002D000891B2FBF08958091920581110DC082E086
:1002E00080938E0584E080938F0510929105109283
:1002F000900581E0809392058EE895E00895409105
:10030000790150917A01209177013091780142175B
:100310005307B4F49091E8009570E1F39091E800F0
:1003200092FD19C08093F1008091790190917A013A
:1003300001968F739927892B19F48EEF8093E8002B
:100340008091790190917A01019690937A0180933E
:10035000790181E0089580E00895EF92FF920F9374
:100360001F93CF93DF93F82E192FE62E042F81E0F1
:10037000860F880F0E947F0183E00E947F01CF2DAE
:10038000D12FEC0EFD2EF11CCE15DF05B9F007FFC5
:1003900013C0FE0184910E947F01182F80E00E940B
:1003A0007F01812321968111EFCFDF91CF911F91A2
:1003B0000F91FF90EF9008958881EDCF81E0F5CF08
:1003C000DF92EF92FF920F931F93CF93DF93D82E7C
:1003D0008A01EB017B01E40EF51ECE15DF0559F015
:1003E000D7FE12C0FE0184910E947F0121968111E7
:1003F000F4CF0FEF1FEFC801DF91CF911F910F9145
:10040000FF90EF90DF9008958881EECF0F931F93B8
:10041000CF93DF931F92CDB7DEB782E0898342E4AA
:1004200050E064ED70E080E80E94E0010E946B0102
:10043000DC0112960D911C910115110589F0D8016E
:10044000ED91FC910280F381E02DBE016F5F7F4F43
:10045000C801099597FD04C0F80100851185ECCF0E
:1004600089810F90DF91CF911F910F910895615075
:1004700030F02091F100FC0120830196F8CF2898FC
:1004800084E680939A050895CF93DF931F92CDB7AA
:10049000DEB76983DC01ED91FC910280F381E02DF0
:1004A00041E050E0BE016F5F7F4F09950F90DF91F3
:1004B000CF91089583E08093E9008091F200882332
:1004C00019F08AE38093E80008950E945A0190E0B1
:1004D0000895CF93DF931F92CDB7DEB7FC018485DB
:1004E000958597FD08C02FEF3FEF358724870F9044
:1004F000DF91CF910895CE0101960E9430010197BE
:1005000019F4898190E0F3CF8FEF9FEFF0CF0F9335
:100510001F93CF93DF931F92CDB7DEB78C01FC0101
:100520008485958597FF0BC0CE0101960E9430010E
:10053000019771F4898190E0F80195878487F8012B
:10054000848595850F90DF91CF911F910F9108952C
:100550008FEF9FEFF1CFFC018485958597FD0BC050
:100560009FB7F89482E08093E9008091F2009FBFEA
:1005700090E0019608959FB7F89482E08093E90097
:100580008091F2009FBF90E008950DB407FEFDCF6B
:100590008EB5729A08950DB407FEFDCF8EB51EBCC0
:1005A000089572980E94E902862F0E94E902852F21
:1005B0000E94E902842F0C94E902462F5091810198
:1005C000570F60918201681F83E00E94D1021EBC18
:1005D00008958EBD00008EB50DB407FEFCCF0895C2
:1005E000FC010E948B03319728F068517C4F8F4F9C
:1005F0009F4FF9CFAB01FC010E948B036417750775
:100600008E079F07C8F3089585E090E00C94F002F0
:100610008F929F92AF92BF92CF92DF92EF92FF9212
:100620000F931F93CF93DF936C017B018A0180911D
:100630000B01882309F45AC080919B05882309F493
:1006400055C080917D0180FF05C08091E0008260EF
:100650008093E000E801B12C8AEFA82E93E0892E68
:100660002AE3922E209711F4BB20C9F10E945A016F
:10067000811108C0AA94AA20C9F181E090E00E94EB
:10068000F002F0CF8C171D0611F00CF08C2F9FB7E5
:10069000F8948092E9002091E80025FD02C09FBFF8
:1006A000E1CF282F30E0C21BD30BF701815020F09F
:1006B00041914093F100FACFE20EF31EBB2021F0EE
:1006C0009092E800B12CEBCF8091E80085FDE7CF58
:1006D0009092E800BB24B394209709F3F3CF5D9880
:1006E00084E680937C01101611063CF081E090E0D6
:1006F000F6019383828310E000E0C801DF91CF917F
:100700001F910F91FF90EF90DF90CF90BF90AF902F
:100710009F908F900895A3E7B1E02FB7F8947D9153
:100720008D919C9166B52FBFA89B05C06F3F18F4B3
:100730007F5F8F4F9F4F22E0660F771F881F991FA3
:100740002A95D1F70895FC019081611105C081E0DF
:10075000913039F080E005C0613021F481E09111E1
:10076000F9CF0895623021F481E0933099F7F9CF01
:10077000633081F781E0923069F7F3CF30E73CBD19
:10078000DC0130E8439FC0011124A80FB91F5E911E
:10079000352F6111372F3C93C89500C052235EBDA1
:1007A0000197A9F704D003D030E50DB43CBD0895FE
:1007B00080918305882329F081508093830581E00F
:1007C000089580E0089580916B0180936C019FB142
:1007D0009095907F669B98601C9B946090936B01B2
:1007E000809589230895262F9091E007891B990B06
:1007F000039664E070E00E94BA2B489F200D1124FC
:10080000822F08950F931F93CF93DF9344E0849F2B
:1008100090011124F901E455FF4F849140E1849F38
:10082000C0011124CCE0D1E099878887F901E25515
:10083000FF4FE49120E1E29FF0011124FB87EA875A
:10084000805E964008E110E0B8010E94BA2B9B013F
:100850007D836C83CF014097B8010E94BA2B7F83C0
:100860006E832052394F39832883719561957109C0
:100870007B836A8382E190E09F878E8780E891E0A6
:100880009D878C87DF91CF911F910F910895EBE8A1
:10089000F7E02FE937E080E09781911101C08F5F89
:1008A00035962E173F07C1F78430E8F420918C0568
:1008B00065E0822F90E0019683709927282FAC0184
:1008C0004F5F5F4F649FF001659FF00D1124E55766
:1008D000F84F3281332369F380938C051092F10530
:1008E0001092F005089580919D058152823060F448
:1008F00080918C0590E001968370992780938C05F8
:1009000083E280939D05EACF86E280939D0508955A
:10091000E8E8F7E080818F5F80838150990B25E0C4
:10092000289FD001299FB00D1124A15FB84F1196C7
:100930009C911197EBE8F7E096A78C9185A791AB76
:1009400080AB08953F924F925F926F927F928F9209
:100950009F92AF92BF92CF92DF92EF92FF920F934E
:100960001F93CF93DF9300D01F92CDB7DEB73A012C
:10097000862EA3E8B1E0B701E02FDD24382E96954E
:100980009695969531E061FD34E060FD330F62FD90
:1009900032955FEF539F7001E094F09475956795E1
:1009A0007595679575956795462F4F3F4CF4409523
:1009B000941B20FD440F489F600C711C8D1C4FEF51
:1009C00017FF0BC0300E20FF02C0000F111F601A6E
:1009D000710A8D0817FD8394EE2750E845030E0E2B
:1009E000A00DB11D5E1B351608F0352E57E0541BC7
:1009F000591714F4952FD39450E85319482E5524C1
:100A000021FD02C04318550820FF02C0440C551CAC
:100A100011245B824A82932E00908101700C009019
:100A20008201801C19C0729833E03EBD640C751CB5
:100A3000811CAA24831509F0A3940CD08EBC07D086
:100A40007EBC05D06EBC03D01EBC03D00895C895F3
:100A50000000C895C8950895641875088108E3DFFB
:100A600041151CF0992371F564C0A058BF4FC32CE9
:100A700020FD0CC06EB51EBC699DBC90BF20B12886
:100A8000BD92C89500C0CA94A9F711C06EB51EBC2E
:100A9000699DB001DEDFEEB41EBCE99C7001BC9024
:100AA000F094BF20B72ABD92C895CA9479F7112453
:100AB000A319B1099A9509F45CC0AA2019F00DB4E4
:100AC000729AB1DFFD01E058FF4FC32C20FD0EC02C
:100AD0006EB51EBC699DBC90BE20B028BD92B08092
:100AE000BF20B128B192CA9499F716C06EB51EBC4A
:100AF000699DB001BC90F080AEDF00C0EEB41EBCBA
:100B0000E99C0094B020B62ABD921094F120F72AF7
:100B1000F1920000CA9451F71124A50FB11D9A95C6
:100B200061F6DD2031F1AA2021F00DB4729A7BDF4D
:100B3000C89520FD0CC06EB51EBC699DBC90BE2042
:100B4000B028BD92C89500C03A94A9F712C06EB5FE
:100B50001EBC699DB0017DDF9EB51EBC999D902D88
:100B6000BC909095B922B62ABD92C8953A9479F76F
:100B7000C8951124729A0DB40F900F900F90DF91C9
:100B8000CF911F910F91FF90EF90DF90CF90BF908A
:100B9000AF909F908F907F906F905F904F903F901D
:100BA00008956F927F928F92AF92CF92DF92EF92E1
:100BB000FF920F931F93DC01922F2A2DF92FE42F20
:100BC0003701802EC114D104A1F096959695969583
:100BD000A0FC990F949F7001ED9C700C811CFC9CF3
:100BE000700C811CFD9C800CEC9C600C711C112411
:100BF000811C7B018D01682DA301CF010E94A204FD
:100C00001F910F91FF90EF90DF90CF90AF908F905A
:100C10007F906F9008954F925F926F927F928F9224
:100C2000AF92BF92CF92DF92EF92FF920F931F93FA
:100C3000CF93DF93EC012B013901842E842FB9016E
:100C40000E94DD020E94CB02B82E0E94C502C0386D
:100C5000D105FCF490E449165104DCF49E012B0DFF
:100C6000311D12161306ACF49201280F311D121615
:100C700013067CF492E0690E711C811C93E0A92E8E
:100C80006801082D7301282F4B2DB201CE010E945F
:100C9000D105DF91CF911F910F91FF90EF90DF90E1
:100CA000CF90BF90AF908F907F906F905F904F905C
:100CB0000895EF92FF920F931F93CF93DF93F82E37
:100CC000C091E007809192078130C9F108F452C0C9
:100CD000823009F447C0833009F45DC0E12C809173
:100CE0009707813009F45BC008F470C0823009F4C2
:100CF00068C0833009F47CC080919C07813009F47E
:100D00007EC008F495C0823009F48DC0833009F4A8
:100D10009FC08091A107813009F49FC008F4B4C03E
:100D2000823009F4ACC0833009F4CBC0E110BDC0FF
:100D3000DF91CF911F910F91FF90EF9008950F2DAC
:100D400010E00D5F1F4F2AE13EEE43E061E170E0ED
:100D50008CE590E00E940B06C111C0CFD6E05DE5A6
:100D6000E52EBDCF0F2D10E02AE13EEE43E060E11D
:100D700070E0EECF0F2D10E00A5F1F4F2AE13EEE2C
:100D800043E06FE070E08CE590E00E940B06C1113B
:100D9000A5CFDAE0E4CFC111A1CFD7E1E0CF0F2D8D
:100DA00010E00D5F1F4F2EEF3AEE43E068E270E077
:100DB00089E290E00E940B06C13009F09DCFD8E295
:100DC0009BCF0F2D10E00A5F1F4FEDCF0F2D10E0CE
:100DD0002EEF3AEE43E068E270E089E290E00E9494
:100DE0000B06C13009F088CFD8E243E2E42E84CF6D
:100DF000C13009F081CFD8E234E3E32E7DCF0F2D4F
:100E000010E00D5F1F4F2EE93CEE43E060E170E023
:100E100086E090E00E940B06C23009F07ACFD7E05E
:100E200027E0E22E76CF0F2D10E00A5F1F4FEBCFA9
:100E30000F2D10E02EE93CEE43E060E170E086E02B
:100E400090E00E940B06C23009F063CFDBE0E8CFF0
:100E5000C23009F05ECFD7E1E3CF0F2D10E00D5F78
:100E60001F4F2EE539EE43E066E070E089E290E046
:100E70000E940B06C33009F059CFD6E057CF0F2D93
:100E800010E00A5F1F4FEDCF0F2D10E02EE539EE79
:100E900043E066E070E089E290E00E940B06C33018
:100EA00009F044CFD6E090E4E92E0F2D10E06D2F2D
:100EB00070E02CE536E945E08E2D90E00E940B06AF
:100EC00037CFC33009F032CFD6E085E3E82EEDCF3F
:100ED0000F931F939091E007923091F09330D1F0EF
:100EE00091110BC0082F10E028E831EF43E06DE0CE
:100EF00070E08CE590E00E940B061F910F91089521
:100F0000082F10E02EED30EF43E06FE070E086E058
:100F100090E0F1CF082F10E026E93FEE43E066E0D5
:100F200070E087E290E0E7CF0F931F932091E007F6
:100F30002130A9F088F02230A9F02330B1F0082F39
:100F400010E070E02CE536E945E0892F90E00E9442
:100F50000B061F910F91089567E19DE5F0CF68E2C0
:100F600094E3EDCF67E197E0EACF66E0F9CF4F92E7
:100F70005F926F927F928F92AF92BF92CF92DF92E9
:100F8000EF92FF920F931F93CF93DF932C01EB010E
:100F90003901842E842FB9010E94DD020E94CB0208
:100FA000B82E0E94C502C034D105D4F492012B0D95
:100FB000311D232BA9F09E01280F311D1216130697
:100FC0007CF492E0690E711C811C92E0A92E6801EC
:100FD000082D7301282F4B2DBE01C2010E94D1059F
:100FE000DF91CF911F910F91FF90EF90DF90CF9005
:100FF000BF90AF908F907F906F905F904F900895CB
:10100000EF92FF920F931F93CF93DF93E42EF22E74
:101010002091E10704E22F3F21F009E0209F002DFD
:101020001124C82FD0E0060F0C0F1D2F111D21E633
:1010300031EE42E060E270E089E690E00E94B7079E
:10104000EE20A1F08091C3079091C4078C01000F9E
:10105000111F080F191F0C0F1D1F2DEB35E243E068
:1010600063E370E086E790E00E94B707FF20A1F0FD
:101070008091C1079091C2078C01000F111F080FCA
:10108000191F0C0F1D1F2DEB35E243E06AE370E0E2
:1010900086E790E00E94B707DF91CF911F910F91F3
:1010A000FF90EF900895EF92FF920F931F93CF93CD
:1010B000DF93E42EF22E90E0663030F02091DE07D0
:1010C00099E0299F902D1124C82FD0E0092F060FF9
:1010D0000C0F1D2F111D27E432ED42E070E060E09F
:1010E00089E690E00E94B707EE20A1F08091BE074C
:1010F0009091C007890F8E0193E0899F000D111D0B
:1011000011242DEB35E243E068E070E086E790E0E3
:101110000E94B707FF20A1F08091BD079091BF0703
:10112000890F8E0193E0899F000D111D11242DEB75
:1011300035E243E06FE070E086E790E00E94B70799
:10114000DF91CF911F910F91FF90EF900895CF9372
:10115000DF93FC01DB0111969C911197208585E0BE
:10116000EF01289FC00DD11D11249B879085EF01B1
:10117000989FC00DD11D11242A969C919883149696
:101180009C9114979C8313969C912085DF01289F46
:10119000A00DB11D11241D969C9380858F5F8087C3
:1011A000DF91CF910895E8E8F7E020812F5F208359
:1011B0002150330B95E0929FB001939F700D112445
:1011C000615F784F27E4829FC00111248D509A4FB0
:1011D0000C94A708FC01A085B0E030E020E08FEF80
:1011E0002A173B0764F49285691305C09385491754
:1011F00010F4822F492F2F5F3F4F3596F1CF08957E
:10120000FC01A085B0E030E020E08FEF2A173B071B
:1012100064F49285691305C09385941710F4822FA6
:10122000492F2F5F3F4F3596F1CF0895FC01208560
:1012300080E0281731F035969581691721F08F5F8E
:10124000F8CF80E0089581E00895FC0190E085E00A
:101250002085921748F4DF01989FA00DB11D11243D
:101260001C961C929F5FF4CF08950F931F93CF930A
:1012700010929C050FED17E0D8018C91C7E48C9F6C
:10128000C00111248D509A4F0E942509D801EC917C
:10129000EC9FF0011124E350FA4F81E08283CF915B
:1012A0001F910F910895FC0120E03FEF40E0518D28
:1012B000651305C0528D451710F4322F452F2F5F4F
:1012C00035962430A1F725E03F3F29F4FC01EC5A84
:1012D000FF4F208135E0239F800D911D11244996F9
:1012E0000895FC01EA5AFF4F20812F3F71F030E052
:1012F0002F5F3F4F65E0629FA001639F500D112457
:10130000840F951FFC01808108958FEF0895CF937E
:10131000DF93EC010E947109982F898D981769F06D
:101320008E8D981751F08BA1981739F081E028A580
:10133000291380E0DF91CF91089581E0FBCF0F93D7
:101340001F93CF93DF93EC010E947109182FFE01C8
:10135000EA5AFF4F808190E0019605E0089FF00176
:10136000099FF00D1124EC0FFD1F82818150823006
:1013700098F5CE010E9487098823A1F090E020E033
:101380008FEF398D131305C03A8D231710F4232FD7
:10139000892F9F5F25969430A1F7DF91CF911F9100
:1013A0000F910895FE01ED5AFF4F8081FE01809F4D
:1013B000E00DF11D1124418D90E020E08FEF398D7B
:1013C000431305C03A8D231710F4232F892F9F5FF5
:1013D00025969430A1F7E1CFE0CF0F931F93082F0C
:1013E00010919D0584ED810F833008F083C08BE858
:1013F00097E00E949F09282F8091F0059091F105B8
:1014000060E370E00E94A62B2D7F213031F44897D5
:1014100048F021E040E069E008C020E041E06CE0F5
:10142000489718F421E041E066E0802F0E945308BD
:101430001C3209F45BC08091E107882319F08230E7
:1014400009F042C08091BD079091BF07890F10E05D
:101450000E9405019C018091F0059091F1051130E9
:10146000D1F512161306CCF160E370E00E94A62BB2
:1014700020E041E06CE04897C8F1802F0E9400080E
:101480008091E1078F3FE9F090E0019625E0289FE9
:10149000F001299FF00D1124E557F84F808190E06D
:1014A0009C01220F331F820F931F080F192F111D4C
:1014B00025EF30ED42E069E170E08EE690E00E94B9
:1014C000B7071F910F9108958091BE079091C007B3
:1014D000890F11E0BDCF232B39F660E370E00E9445
:1014E000A62B21E040E069E0489738F621E041E092
:1014F00066E0C3CF21E041E066E0802F0E94530800
:10150000F5CFCF93DF938091DF0727E490E001963A
:10151000EC01C370DD278C2F2C9FF0012D9FF00D67
:101520001124E75CF94F9081992381F3C093DF0781
:101530009AE290939D059091DE079C133DC08BE845
:1015400097E00E949F09E82FF0E0E557F84F82A945
:101550008F5F82AB85E08C9FF0018D9FF00D112491
:10156000EC55F84FC0818BE897E00E947109EBE8D9
:10157000F7E02C2F30E02557384F4FE957E0918D99
:101580008C1307C0891739F0D901AE5BBF4F1C928D
:1015900002C0C913F9CF35962C5F3F4F4E175F0736
:1015A00071F78BE897E00E949F098093DE07809394
:1015B000DF078CE280939D051092F1051092F005F3
:1015C00080918805811104C0DF91CF910C94350979
:1015D000DF91CF9108951F93CF93DF93EC01162FE6
:1015E0000E948709FE018823E1F090E020E08FEF60
:1015F000318D131305C0328D231710F4232F892F3B
:101600009F5F35969430A1F78F3F31F195E0899F28
:10161000C00DD11D1124CE014996DF91CF911F91AC
:101620000895ED5AFF4F8081FE0195E0899FE00DFE
:10163000F11D1124418DFE0190E020E08FEF318DEE
:10164000431305C0328D231710F4232F892F9F5F7A
:1016500035969430A1F7D8CFFE01EC5AFF4F808128
:10166000D5CFCF93DF93EC010E947109282FFE01A3
:10167000ED5AFF4F908131968081981741F085E0B7
:10168000989FC00DD11D112481E0998D921380E0A7
:10169000DF91CF9108950F931F93CF93DF93EC01C8
:1016A000062F142F0E947109982F84E0189FF001D3
:1016B0001124EC0FFD1F901326C0E90FF11DEE5B06
:1016C000FF4F80818823D1F08230C1F0E1E099237F
:1016D00051F0E0E0913039F0E3E0923021F0E2E0C7
:1016E000933009F0EFEFF0E07D96EE0FFF1FEC0F67
:1016F000FD1F8081918193FF0CC082E0DF91CF912B
:101700001F910F910895E00FF11DEE5BFF4F808157
:10171000F5CF80E0F3CF1F93CF93DF93EC01162F2B
:101720000E947109412F682FCE01DF91CF911F9147
:101730000C944B0B722F203171F4461335C0E42FFB
:10174000F0E07D96EE0FFF1FE80FF91F818183FB0C
:10175000882780F908952F3089F4461325C0413039
:1017600049F030F0423041F0433049F742E0E7CFF2
:1017700041E0E5CF40E0E3CF43E0E1CF50E0435E1E
:101780005F4F440F551FFC01E40FF51F21E030E0CF
:1017900002C0220F331F7A95E2F7808191812823BE
:1017A000392381E0232B09F480E008959F92AF92C2
:1017B000BF92CF92DF92EF92FF920F931F93CF933E
:1017C000DF936C01F62EE42EFC0100811181C8012B
:1017D0000E947109B82E29E0A22EE110AE2C9EE0E5
:1017E000992EFB1002C081E1982EDA2DC0E09D16E3
:1017F00090F4F601208530E090E080E082179307B6
:10180000DCF44285F41204C04385E41608F4C150A8
:1018100001963596F3CFFB1002C0DB3059F0DA1594
:1018200049F02D2F4F2D6B2DC8010E949A0B81116D
:1018300001C0CF5FDF5FDBCFF801EA5AFF4F908135
:10184000F6018781981308C0F80185A5F81204C035
:1018500086A5E81608F4C1508C2FDF91CF911F9117
:101860000F91FF90EF90DF90CF90BF90AF909F903F
:101870000895DF92EF92FF920F931F93CF93DF9320
:101880007C01062F142F40E0612F0E94EA08D82F18
:101890008F3FF9F0F70185E0D89FE00DF11D11248D
:1018A000D384CEE0101301C0C0E1CD1590F0101329
:1018B00002C0CB3051F02C2F412F602FF7018081D7
:1018C00091810E949A0B882311F0C150EECFDC1257
:1018D000DFEF8D2FDF91CF911F910F91FF90EF9050
:1018E000DF9008950F931F93CF93DF93FC01C18185
:1018F000442311F0433071F4CC23A9F1FC010081A1
:10190000F901E00FF11D8081F4E18F9FC00D1124DA
:101910008C2F20C0CC2339F18901D081CB30F9F450
:101920000E94A3038823D9F0E1E0DD2351F0E0E039
:10193000D13039F0E3E0D23021F0E2E0D33009F0E9
:10194000EFEFE00FF12FF11D8081C4E18C9F802D1E
:101950001124815FDF91CF911F910F910895F801BC
:10196000ED0FF11DD0CF8FEFF5CF5F926F927F9289
:101970008F929F92AF92BF92CF92DF92EF92FF929F
:101980000F931F93CF93DF9300D000D0CDB7DEB776
:101990007C01DC01CD90DC90C6010E947109182FFA
:1019A000F601EA5AFF4F2081712C2F3F69F030E099
:1019B0002F5F3F4F45E0429FC001439F900D112490
:1019C000C80ED91EF60172808091230190912401E6
:1019D000A0912501B091260189839A83AB83BC83B2
:1019E00060E0C7010E941609C82E61E0C7010E948D
:1019F0001609082F62E0C7010E941609D82E63E07D
:101A0000C7010E941609CC2009F42EC1002309F455
:101A100093C0DD2009F4ACC0882349F0111114C033
:101A200093E0998391E09A831B8292E09C83DD206E
:101A300009F49EC0811136C01111C5C082E08983AE
:101A40001A8281E08B83C5C0113011F419837EC0E6
:101A5000123021F493E09B8391E0E8CF133039F703
:101A6000198292E09A8391E09B831C83E0CFDD2072
:101A7000C9F08823B9F0111108C083E0898381E09F
:101A80008A831B8282E08C830DC083E0113009F4CD
:101A90006CC0123009F04BC083E0898381E08A83F7
:101AA0001B831C8267018AE0C80ED11C00E00F5F17
:101AB0005601A5E0AA1AB108602EB6E06B1609F42B
:101AC000A4C04501EAE08E0E911C9E012F5F3F4F9E
:101AD000472D612FC4010E94720C582E9E012F5F6A
:101AE0003F4F472D612FC6010E94720C5816D0F44B
:101AF000D6015C9111964C91119713963C911397D6
:101B000014962C91149712969C91129785E0F401EB
:101B100001900D928A95E1F7F50152874387358749
:101B2000268794876394F5E0AF0EB11CC6CF1330BF
:101B300009F0B8CF1983A3CFDD2009F4B3CF8823F0
:101B400009F4B0CF111104C081E0898383E098CFFC
:101B5000113009F47BCF123021F481E0898383E0D6
:101B60009ECF133009F09ECF81E089831A8389CFFD
:101B7000882349F0111115C092E099831A8293E0ED
:101B80009B8391E09C83002309F48CCF81118ACF41
:101B9000111132C083E0898382E08A831B8281E055
:101BA00072CF113039F4198282E08A8383E08B830B
:101BB0001C8378CF123021F4198292E09A83DFCF10
:101BC0001330D1F3E0CF113031F4198282E08A83EF
:101BD0001B8383E058CF123021F4198282E08A837C
:101BE00030CF1330D1F35ECF133009F05BCF81E0FB
:101BF0008A8382E08B8356CF113009F053CF82E085
:101C0000898383E08A831B82D3CFF5E0CF0ED11C7A
:101C1000063009F04CCFD70118961C92F7019701B6
:101C2000225E3F4F8385882359F0D70118968C9107
:101C300018978F5F18968C933596E217F30791F7F4
:101C40000F900F900F900F90DF91CF911F910F91F8
:101C5000FF90EF90DF90CF90BF90AF909F908F90CC
:101C60007F906F905F900895011101CFDD2009F4FE
:101C700019CF882309F416CF123009F0B5CF81E0CF
:101C800094CF1F93CF93DF93DC0118962C91A22F52
:101C9000B0E0FC013A9650E040E04A175B0724F5BB
:101CA0001081EB013881131324C011813981131382
:101CB00020C02150DC0118962C9318970D90BC91F0
:101CC000A02D21819E962C939E9720819D962C93EA
:101CD0009D972181D1962C93D1972081D0962C93DA
:101CE0002FEF208311821282DF91CF911F910C94EC
:101CF000B50C4F5F5F4F3596D0CFCF93DF93EC019C
:101D000055E0FC01659FE00DF11D11243A9680819C
:101D10008A8381818B8383818D8384818E83828179
:101D20008C83411143C0838190E0880F991FA88163
:101D3000B981A80FB91F248181E090E0BC0102C0E5
:101D4000660F771F2A95E2F79B01DA968D919C9199
:101D5000DB97862B932BDB969C938E93DA972881C7
:101D60003981C9018C5A9F4FDC018C91D901859F23
:101D7000A00DB11D1124599680818C9381811196FB
:101D80008C931197838113968C9313978481149667
:101D90008C931497828112968C938FEF808311829B
:101DA0001282CE01DF91CF910C94B50CDF91CF91CF
:101DB0000895FC01B08530E05FEFAFEFB31769F035
:101DC0007285671307C07385471720F47A1710F4DC
:101DD000532FA72F3F5F3596F1CF5F3F31F0422F52
:101DE000652F0E947D0E81E0089580E00895AF92F6
:101DF000BF92CF92DF92EF92FF920F931F93CF93F8
:101E0000DF937C01D62EC42EB22EC0E0DFEF1FEF91
:101E100085E0A82EDC16A9F0CC1699F0BC1689F046
:101E20004FEF6C2FC7010E9400098F3F51F0F7015F
:101E30008A9DE00DF11D11249385911710F4D82F80
:101E4000192FCF5FC43031F780E0DF3F31F0402FF2
:101E50006D2FC7010E947D0E81E0DF91CF911F9110
:101E60000F91FF90EF90DF90CF90BF90AF900895CB
:101E70008F929F92AF92BF92CF92DF92EF92FF929A
:101E80000F931F93CF93DF938C01E62EA42E922EF7
:101E9000C0E025E0822EAC16E9F0D0E099E0F92E02
:101EA000EC1203C02BE0F21659F02F2D4C2F6E2DA3
:101EB000F801808191810E949A0B811101C0DF2D70
:101EC000F394FFE0FF12ECCF8EEF8C0F823038F4EA
:101ED000D43049F4CF5FC430F1F680E03CC0C2306A
:101EE00010F4D530B9F3D15040E06C2FC8010E94F6
:101EF000EA088F3F79F39801889D200D311D112448
:101F0000F9013A966F0189E0F82EB12CDF1590F0B7
:101F1000EC1203C0FBE0FF1659F02F2D4C2F6E2D55
:101F2000F801808191810E949A0B811101C0BF2C20
:101F3000F394ECCFF60181818B11CCCF4D2F6C2F18
:101F4000C8010E9400098F3F29F2492D682FC8015E
:101F50000E947D0E81E0DF91CF911F910F91FF9044
:101F6000EF90DF90CF90BF90AF909F908F900895AB
:101F7000FF920F931F93CF93DF938C01D62FF42EF4
:101F8000C0E04C2F6D2FC8010E94390C8F3F61F0CB
:101F90004F2D682FC8010E947D0E81E0DF91CF9107
:101FA0001F910F91FF900895CF5FC43051F780E0EB
:101FB000F5CF1F93CF93DF93EC01122F0E94390CC2
:101FC0008F3F51F0412F682FCE010E947D0E81E09E
:101FD000DF91CF911F91089580E0FACFCF92DF92E9
:101FE000EF92FF920F931F93CF93DF938C01D62E26
:101FF000E42EC0E0DFEFFF24FA9485E0C82EDC1663
:1020000089F04FEF6C2FC8010E9400098F3F51F0FB
:10201000F8018C9DE00DF11D112493859F1510F49E
:10202000D82FF92ECF5FC43051F780E0DF3F31F079
:102030004E2D6D2FC8010E947D0E81E0DF91CF9162
:102040001F910F91FF90EF90DF90CF9008951F9315
:10205000CF93DF93EC01142F4FEF0E9400098F3FC5
:1020600051F0412F682FCE010E947D0E81E0DF915B
:10207000CF911F91089580E0FACF2F923F924F9217
:102080005F926F927F928F929F92AF92BF92CF9208
:10209000DF92EF92FF920F931F93CF93DF9300D0C5
:1020A0001F92CDB7DEB79B838A83762EFC01F78122
:1020B000F9838F2E912C540122E0A20EB11C33E043
:1020C000A322BB24FC0100811181C8010E94710977
:1020D000682E682FC8010E945309FC014180F80155
:1020E000ED5AFF4F8081E82EF12C95E0292E9801C2
:1020F000829D200D311D1124F90179966F015080C8
:10210000C8010E94310B382E2A9CF0012B9CF00D47
:102110001124E00FF11F828D882309F433C1FFEFF2
:102120008F1A9F0A23E082229924C8010E949F09E6
:10213000B82E8A11ECC08981837033E0E30EF11C64
:1021400093E0E922FF248E151F0431F5472D33203B
:1021500009F497C0662D8A819B810E942710811106
:1021600020C1472D662D8A819B810F900F900F9083
:10217000DF91CF911F910F91FF90EF90DF90CF9063
:10218000BF90AF909F908F907F906F905F904F9097
:102190003F902F900C94EE0F3320B1F1482D662D17
:1021A000C8010E944B0B8150823008F0AEC0442D14
:1021B000662D8A819B810E94D60B843008F4A5C0CD
:1021C000442D662D8A819B810E94EA08472D8F3F0E
:1021D00009F4C0CF682F8A819B810F900F900F90D8
:1021E000DF91CF911F910F91FF90EF90DF90CF90F3
:1021F000BF90AF909F908F907F906F905F904F9027
:102200003F902F900C947D0EC8010E94870988236F
:1022100081F0472D652D8A819B810E9427108111B5
:10222000C0C0272D442D662D8A819B810E94D90E26
:102230002DC0F601F180F394E12C651011C0FFEF81
:10224000FF16E1F02BE0F21649F02F2D462D662DFA
:10225000C8010E949A0B811101C0E394F394EFCF5F
:102260003EE03F1558F02F2D452D662DC8010E94E8
:102270009A0B811101C0E394F394F2CFE1102BC0CB
:10228000472D652D8A819B810E942710811189C06D
:10229000472D662D8A819B810E94EE0F811181C09E
:1022A000472D662D8A819B810F900F900F90DF91B3
:1022B000CF911F910F91FF90EF90DF90CF90BF9043
:1022C000AF909F908F907F906F905F904F903F90D6
:1022D0002F900C942710442D652D8A819B810E949C
:1022E000D60B843008F44CC040E0652D8A819B8178
:1022F0000E94EA08472D8F3F09F06CCF652D8A8137
:102300009B810E94271081114CC0472D23CF332081
:1023100021F1482D662DC8010E944B0B93E0E90E78
:10232000F11CE3E0EE22FF24998193709E151F04B7
:1023300041F4272D442D662D8A819B810E94D90E60
:10234000E2CF8111F6CF40E0662D8A819B810E9409
:10235000EA088F3F71F3472D3DCFC8010E948709DE
:10236000811157CFF801B29CE00DF11D1124272DEA
:10237000428D652D8A819B810E94D90E811111C0E9
:10238000472DBCCF3110D5CFC8010E9487098111DC
:1023900040CF652DC8010E94EB0A272DFC01418129
:1023A000E8CF0F900F900F90DF91CF911F910F9179
:1023B000FF90EF90DF90CF90BF90AF909F908F9065
:1023C0007F906F905F904F903F902F900895FC0109
:1023D000238184818450990BFBE02F9F800D911DF8
:1023E0001124982F990F890F08952F923F924F92A1
:1023F0005F926F927F928F929F92AF92BF92CF9295
:10240000DF92EF92FF920F931F93CF93DF9300D051
:1024100000D01F92CDB7DEB7382E6A838091800638
:10242000882309F477C0209042069CE0492E512C65
:1024300042185108440C440C24E4E22E26E0F22E0B
:10244000D12CC12C042C000C5508632C712C30E3CA
:10245000832E912CC982C21408F05CC0F7018181DF
:10246000882309F44AC080919D05873279F0A0F055
:102470008A52823088F48091DF07813009F044C0AD
:102480008281882309F443C0FBE204C08281FFE219
:102490008111FACFFB8302C08FE28B839B81892F4E
:1024A00090E09D838C83560183E0AA0CBB1C8A9527
:1024B000E1F7A40CB51CC7010E94E7118301080FC6
:1024C000111DEA81EE2389F080919C05F981F813B2
:1024D0000CC08091F0059091F105B4010E94A62BEB
:1024E0002EEA3DEC41E0489718F020E138E841E061
:1024F0006C817D81C5010E940B068FEFC81AD80A36
:1025000095E0E90EF11CA6CF9FE29B83C7CFEFE2D7
:10251000EB83C4CF809189068823A1F09091C706F0
:10252000992381F0032D10E0E3E08E9F000D111D33
:10253000112424E335EC42E066E070E090E080E0B6
:102540000E94B7078091D0068823A1F090910E07D2
:10255000992381F0032D10E0F3E08F9F000D111DF2
:1025600011242CE63DEC42E06DEF7FEF8FE190E02F
:102570000E94B7078091FB058823A1F0909139064E
:10258000992381F0032D10E093E0899F000D111D28
:10259000112420E539EC42E066E070E084E690E04A
:1025A0000E94B7070F900F900F900F900F90DF9140
:1025B000CF911F910F91FF90EF90DF90CF90BF9040
:1025C000AF909F908F907F906F905F904F903F90D3
:1025D0002F900895FF920F931F93CF93DF93D82FDF
:1025E000F62EC42F23E062134AC08091F00590912B
:1025F000F10560E370E00E94A62B489708F43FC005
:102600008091AA078823A1F089EA97E00E94E71148
:10261000282F2D0F3327331F89016C2F70E06D5E3B
:102620007F4F20E138E841E081E390E00E940B0613
:10263000F1104BC08091F0059091F10560E370E0DE
:102640000E94A62B489708F440C08091AF078823CA
:1026500009F461C08EEA97E00E94E711282F2D0F40
:102660003327331F89016C2F70E06B5E7F4F2CE4A2
:1026700033E142E084E190E00E940B064CC080917F
:10268000B4078823A1F083EB97E00E94E711282F7D
:102690002D0F3327331F89016C2F70E0675F7F4F49
:1026A00020E138E841E086E290E00E940B0631E04C
:1026B000F312A6CF8091F0059091F10560E370E0F0
:1026C0000E94A62B489708F49BCF8091A5078823EA
:1026D000A1F084EA97E00E94E711282F2D0F3327FD
:1026E000331F89016C2F70E0635F7F4F20E43CE66D
:1026F00042E08CE390E00E940B0632E0F312A5CF9B
:102700008091F0059091F10560E370E00E94A62BA6
:10271000489708F49ACFDF91CF911F910F91FF90C6
:1027200008950F931F93CF939091B907992399F030
:10273000C82F88EB97E00E94E711282F2C0F332732
:10274000331F890120E138E841E06EE070E08AE162
:1027500090E00E940B06CF911F910F9108951F9357
:10276000CF93DF93EC01162F88818B8389818C8333
:102770008B3041F4CE010E94A303882319F0188303
:102780008FE0898389818B3029F48881181302C0F6
:1027900080E18983DF91CF911F9108953F924F92FD
:1027A0005F926F927F928F929F92AF92BF92CF92E1
:1027B000DF92EF92FF920F931F93CF93DF93762ECA
:1027C000642E8093E10780938C0760938D0740937C
:1027D0008B07C82FD0E0CE01019625E0289FF0019D
:1027E000299FF00D1124E557F84F6283408322960C
:1027F000C370DD2727E42C9FC0012D9F900D11246D
:102800002EEE822E25E0922E10E000E03324339449
:102810009C01275C394F790135E0432E32E0731279
:102820001EC0C017D107D9F4F70110826401F5E08A
:10283000CF0ED11C512C94012F5D35405901F4016C
:102840008585581688F4C501549C800D911D11246E
:10285000662D82519A4F0E94AF135394F0CFF4012A
:10286000E55BFF4F3082E2CFC6010E94B50C0F5FDF
:102870001F4FF7E48F0E911C0430110579F620915B
:10288000E00747E4822F90E0019683709927282F74
:10289000489FF001499FF00D1124E75CF94F30810A
:1028A000332381F38093DE078093DF071092F105D5
:1028B0001092F00580E48093870510929C05DF91CB
:1028C000CF911F910F91FF90EF90DF90CF90BF902D
:1028D000AF909F908F907F906F905F904F903F90C0
:1028E00008955C98FC012591CF012EBD00000DB428
:1028F00007FEFDCF6150B1F75C9A0895CF93C82FC2
:1029000020E040E0662359F060E08C2F0E945308DD
:1029100021E041E066E08C2FCF910C94000863E049
:10292000F4CF3F924F925F926F927F928F929F92DD
:10293000AF92BF92CF92DF92EF92FF920F931F93CD
:10294000CF93DF9300D000D0CDB7DEB79C838B83CD
:10295000B62E6A01322E7C019C01225E3F4F8C0113
:10296000F8018385928590A781A793A784A70B5F21
:102970001F4F02171307A1F7EB81FC818085818728
:10298000332059F0F60191812081EB81FC8123A352
:1029900094A326A397A38F5F8087EB81FC8160853A
:1029A00070E0712C4B01F1E08F1A910895E0A92E8F
:1029B000872D90E0881599050CF059C040E0FB0187
:1029C000E81BF90BCF0101979A838983A42FB0E00C
:1029D000E981FA81AE17BF070CF047C04A9D90010C
:1029E0001124C9010A96EB81FC818E0F9F1FFC0107
:1029F00051814F5FEB81FC812E0F3F1FF901208930
:102A0000521720F7FC0150804A9DC00111249C01FF
:102A1000265F3F4FEB81FC812E0F3F1FF901618044
:102A20004080AA9E9001AB9E300D1124AB81BC81E9
:102A3000A20FB31F1A964C921A971B966C921B9773
:102A40001D964C921D971E966C92AB81BC81A80F6F
:102A5000B91F1A965C921A971B965C931B971D964A
:102A60005C921D971E965C93B1CF7394A1CFA12C5D
:102A700085E0982EEB81FC815085A51660F4CF018E
:102A8000A99C800D911D1124F60160810A960E9477
:102A9000AF13A394EFCFAB81BC8190E040E030E076
:102AA00080E0591709F484C01B96EC911B97EF3016
:102AB00039F0E03161F48C5931E09F5F1596F1CF28
:102AC00024E6311101C020E5820F41E0F6CF1A96CD
:102AD0002C911A97EF3088F7F0E0EF58FA4E0C94EB
:102AE000CE2BD015D015D015D015D015D015D015AA
:102AF000D415D415D415D4155D15BD158F158015B5
:102B0000B2124AC0332339F0442319F08C59342FC0
:102B1000D4CF8A5BD2CF4423D1F3845CCECFB21220
:102B200022C0913041F088F0923099F0933009F052
:102B3000C4CF8C59C2CFEB81FC8123852F3039F073
:102B4000203151F12E3009F0B8CF8C5EB6CF875EC0
:102B5000B4CFEB81FC8120892E30F1F02F3009F0C9
:102B6000ACCF885DAACF911102C0815FA6CF159628
:102B70006C9115972613F9CFE8CFB2129ECF923001
:102B800059F028F4992391F0913079F396CF93304E
:102B900029F0943071F291CF825E8FCF835D8DCF1B
:102BA000B2128BCF8B5F89CFB21287CF865F85CF72
:102BB000311009C0F60191819B3011F0903119F468
:102BC000813548F18055F70191A520A5228793878B
:102BD00025879687F5E0EF0EF11CE016F10699F7D0
:102BE000EB81FC819185908790E00F900F900F9082
:102BF0000F90DF91CF911F910F91FF90EF90DF9099
:102C0000CF90BF90AF909F908F907F906F905F908C
:102C10004F903F90089580E0D6CF0F931F93CF93AE
:102C2000DF93809164008E7F8093640080917A00AE
:102C3000806480937A0080917A0086FDFCCFC091F9
:102C40007800D09179000E948B03AB01BC01CE01CA
:102C5000B0E0A0E0DC01992788278C019D01040FDA
:102C6000151F261F371FC901B8012091640021607C
:102C700020936400611571058105910531F0DF91A4
:102C8000CF911F910F910C942E2BDF91CF911F911B
:102C90000F9108951F920F920FB60F9211248F93E8
:102CA0009F938091E1009091E100937F9093E100E8
:102CB00083FF0FC01092E90091E09093EB00109217
:102CC000EC0092E39093ED0010929B0598E09093B6
:102CD000F00082FF22C093E09093E9009091F2000F
:102CE000992319F09AE39093E80090917C0199233D
:102CF00041F090917C01915090937C01911101C021
:102D00005D9A90919A05992341F090919A0591507E
:102D100090939A05911101C0289A84FF18C0809160
:102D2000E2008E7E81608093E2008091E1008F7EE0
:102D30008093E10080917D018E7E806180937D0192
:102D40009F918F910F900FBE0F901F90189580FF4D
:102D5000F7CF8091E2008E7E80618093E2008091C7
:102D6000E1008E7E8093E10080917D018E7E816006
:102D7000E5CF1F920F920FB60F921124CF92DF92E0
:102D8000EF92FF920F931F932F933F934F935F9375
:102D90006F937F938F939F93AF93BF93EF93FF9323
:102DA000CF93DF93CDB7DEB76C97DEBFCDBF109268
:102DB000E9008091E80083FF25C068E0CE014596D8
:102DC0000E94370282EF8093E8008D8987FF39C027
:102DD0009091E80090FFFCCF982F907609F034C1D5
:102DE0009E894F89588D2F89F88C911131C0803878
:102DF00061F580917E018093F1001092F1008EEFD9
:102E00008093E8006C960FB6F894DEBF0FBECDBF7E
:102E1000DF91CF91FF91EF91BF91AF919F918F91F2
:102E20007F916F915F914F913F912F911F910F91E2
:102E3000FF90EF90DF90CF900F900FBE0F901F90FC
:102E400018959EEF9093E800C7CF1092F100D5CF70
:102E5000913059F48111D3CF4130510581F68091E1
:102E60007E018D7F80937E01CACF933049F481111A
:102E7000C6CF4130510519F680917E018260F2CFB4
:102E8000953041F48091E80080FFFCCF20682093CA
:102E9000E300B5CF963009F0A9C00B8D1C8D22E060
:102EA0001092E90010927A0110927901F2122EC06C
:102EB00010927801109277010E9406021F8299E019
:102EC0009983FA8291E09E8390EA98879AEF998796
:102ED0002091790130917A01275F3F4F3C832B830A
:102EE0008D831092E90010927A011092790110936B
:102EF00078010093770149E050E0BE016F5F7F4F9A
:102F000080E00E94E0010E94060279CF10937801D0
:102F1000009377010E946B01DC0112960D911C91C8
:102F20000115110509F451C1D801ED91FC910480FE
:102F3000F581E02DBE016B5E7F4FC80109950097BA
:102F400009F03EC1F80100851185EACFF3E0FF12D8
:102F50000EC08F89882309F440C0823061F440E8B4
:102F600067E088E391E00E94AD01811148CF81E2E2
:102F70008093EB0047CF813029F440E86BE08CE28E
:102F800091E0F1CF833099F70E946B01DC0112963A
:102F9000ED90FC908E010F5F1F4F6801E114F1046A
:102FA00079F0D701ED91FC910680F781E02DB80111
:102FB000C7010995080F111DF701E084F184EECFD8
:102FC000D8011C92F60101900020E9F73197BF016A
:102FD0006C197D0940E0C601C6CF66E171E0FB01D6
:102FE000449150E080E80E94E00109CF973009F455
:102FF000BECF983021F481E08093F10000CF99306A
:1030000009F0FDCE837009F0B2CFECE3F1E081E08E
:1030100031E096E32191222371F08093E90030930F
:10302000EB00DF0111972C912093EC009093ED00C1
:103030008F5F873079F78EE78093EA001092EA007D
:103040008F8980939B05DBCE8B8D9C8D1092E90040
:1030500010927A0110927901909378018093770110
:10306000898D811192C08E899D89913A49F481326E
:1030700009F07DCF47E050E064E071E080E0B3CF3D
:10308000913209F074CF833269F48F89988DB0E062
:10309000A0E08093000190930101A0930201B093FE
:1030A0000301ADCE803269F48091E80082FFFCCF4D
:1030B00067E084E091E00E9437028BEF8093E800A4
:1030C0009ECE823209F09BCE8F8980930B01EEEF6A
:1030D000FFE7859194918B3F9C4D51F1E0E0F8E042
:1030E0008091040190910501A0910601B091070122
:1030F000803B9440A105B105F1F480910B0180FD66
:103100001AC0EE3F8AE0F80789F587E797E79183D1
:1031100080838091600080937B0188E19BE00FB603
:10312000F894A895809360000FBE9093600067CEDE
:10313000EEEFFAE0D5CF808191818737974709F08C
:103140005ECEA89580916000886180936000809138
:103150007B0180936000EE3F2AE0F20789F08091C6
:10316000FE0A9091FF0A9183808349CE80819181EC
:103170008737980751F29093FF0A8093FE0AC5CFD4
:103180001092FF0A1092FE0A3ACE0E946B01DC01F7
:1031900012960D911C910115110509F4E8CED80184
:1031A000ED91FC910190F081E02DBE016B5E7F4FAF
:1031B000C8010995811123CEF80100851185EBCF57
:1031C000181619060CF41BCED2CEF1E0FF12BECEBB
:1031D0006AE171E004CF0F920FB68F939F93EF9344
:1031E000FF9380916E018D5F8D3708F08D5780932E
:1031F0006E01EFE6F1E080818E4F808391819F4FD9
:10320000918382818F4F828383818F4F8383E3E712
:10321000F1E080818F5F808381818F4F8183828104
:103220008F4F828383818F4F83838FB18F606699A5
:103230001C9B88278F3681F480916D01981B9630F6
:1032400068F0E0E0F8E087E78083818388E180939D
:103250006000F0936000FFCF90936D01FF91EF91BC
:103260009F918F910FBE0F9018951F920F920FB6DE
:103270000F9211248F939F9382E496E0909389009C
:103280008093880081E0809384059F918F910F90B7
:103290000FBE0F901F9018951092A1051092A005D7
:1032A00088EE93E0A0E0B0E08093A2059093A305A0
:1032B000A093A405B093A50585E591E090939F05A3
:1032C00080939E058FEF9FEF9093AB058093AA05A7
:1032D00080938B0710928C0793E090938D07109248
:1032E0008F0710928E0794E1E7E2F1E0A0E9B7E0E2
:1032F00001900D929A95E1F71092A6071092AB07F4
:103300001092B0071092B5071092BA071092DD071D
:103310001092DE071092DF071092E0078093E1071A
:103320001092EF051092EE051092F1051092F00543
:103330008093F205EBE1F6E081E0DF0194971C92C7
:10334000169612961C9212971596EA17FB07C9F764
:103350009F01225E3F4F12961C92129715962A17D4
:103360003B07C9F7868FE95BFF4F97E0E733F90723
:1033700021F7E1E1F7E089E897E0108235968E17B2
:103380009F07D9F710928707109288070895CDB745
:10339000DEB76B97DEBFCDBF789483E084BD83E05A
:1033A00085BD81E080936E00E1E8F0E083E08083FA
:1033B000E0E881E08083E1E983E08083E0E981E087
:1033C0008083E1EC87E08083E3EC81E08083E0ECC4
:1033D00082E08083E2EC81E08083EAE787E080831B
:1033E0008068808310929B0510927E0110927D016F
:1033F0008091D70081608093D70080EA8093D800C5
:1034000089B5806189BD89B5826089BD09B400FE36
:10341000FDCF81E090E00E94F0028091D8008F7C87
:1034200080618093D8008091E000807F8093E000ED
:103430008091E1008E7E8093E1008DE08093E20038
:10344000559A209A81EC80937C0081EF85B987EEB4
:1034500084B984E38BB984EF8AB9769A6E9880EF49
:1034600081BB10BA80E58CBD81E08DBD0E94040354
:103470005F9A0E9404035C98E0E4F1E085918EBDC0
:1034800000000DB407FEFDCFED34C1F75C9A81E872
:103490008093640001E00093650062E08DE491E0B8
:1034A0000E94711468E08FE491E00E9471149FB74C
:1034B000F89422E436E0309389002093880013E0EA
:1034C000109380008BE18093810010928500109210
:1034D000840080916F00826080936F009FBF5E9A2E
:1034E000E4E1F0E084ED98EF60EF7FEF2591359116
:1034F000559145912851354909F4CA0180938101BC
:1035000090938201259135915591459128513549E6
:1035100009F4BA0160937F017093800172988BEA7D
:103520000E94E902729A1092FA058BE897E0909354
:10353000F4058093F3050093410690933B06809336
:103540003A0622E0209388069093820680938106B3
:103550001093CF069093C9068093C80690938A076C
:10356000809389071092F1051092F0058FEF9FEF7D
:103570009093AB058093AA050E940D1600938805D1
:1035800010928B0510928905109286059E012F5F7F
:103590003F4F3F872E875E98F89430918405388F8F
:1035A000311109C083B7816083BF7894889583B750
:1035B0008E7F83BFF1CF10928405789410918D0592
:1035C0002FE741E050E061E070E083E095E00E9489
:1035D000BE0362E089E591E00E9471142FEF47E09D
:1035E00051E061E070E083E891E00E94BE0362E098
:1035F00087E591E00E9471148EEF810F1F5F8E3F6F
:1036000030F4809183058F5F8093830510E01093E1
:103610008D055E9A80919D05893008F04DC08630F9
:1036200008F063C0853008F055C0E82EF12CC701C2
:10363000880F991F8E0D9F1D00918D05080F192F62
:10364000111D25E939E945E070E060E090E080E097
:103650000E94B7078091F0059091F1050C9761F4F5
:103660001092F1051092F0054FEFE41AF40A53E0BE
:10367000E522FF24E0929D050E94D803882311F1E2
:103680008091F0059091F10501969093F10580935A
:10369000F00580918505803218F48F5F8093850551
:1036A0000E94E303882371F080918505803251F4F4
:1036B00085E080939D0506C0893009F4F1C08F3202
:1036C00008F415C180E090E0892B09F464CF0E94D2
:1036D000000061CF86E080939D05109285051092D1
:1036E00086051092F1051092F0050E94D8038823F8
:1036F00099F010919D058091F0059091F10501964A
:103700009093F1058093F0050E94E303163009F4CD
:1037100062C0173009F46BC000918D0580919D0542
:10372000863009F4A1C0873069F6D0908605E02E76
:10373000F12C870183E0D89E000D111D112424E394
:1037400032E745E070E060E090E080E00E94B7077B
:1037500080918805882389F003E010E0D11002C031
:1037600010E000E00E0D1F1D26E336E945E06EE097
:1037700070E089E090E00E940B0680918B05882321
:1037800091F091E003E010E0D91202C010E000E0F7
:103790000E0D1F1D26E336E945E06BE170E089E080
:1037A00090E00E940B0680918905882309F48ACF56
:1037B000A2E003E010E0DA1202C010E000E00E0D1B
:1037C0001F1D26E336E945E068E270E089E090E0FD
:1037D0000E940B0677CF90918505983111F583FFF4
:1037E00020C00E940D1687E080939D051AC083FFBC
:1037F00007C090918605913021F1E0F0923039F1C7
:1038000087FF07C090918605992319F091509093F6
:10381000860584FF06C0809186058230F8F08230EC
:1038200009F180918505883108F076CF8F5F80930C
:10383000850572CF9091880521E0922790938805A5
:10384000DFCF20918B05922790938B05D9CF909154
:10385000890521E0922790938905D2CF8F5F8093CD
:103860008605DFCF89E0C0CF8091F0059091F1050A
:1038700099278034910590F49695879510E063E040
:10388000869F000D111D112422E332EF43E070E00A
:1038900060E090E080E00E94B70714CF80E0EECFB8
:1038A0001092F1051092F0058AE080939D05109228
:1038B000C2071092C1071092C4071092C3070E945A
:1038C0000D160E94DF2A20E43FE140E050E00E9414
:1038D000372B6B01882799276115710581059105A3
:1038E00011F00E942E2BD092EF05C092EE05C090F1
:1038F0008D050E94D803F82E882309F4A4C21091E4
:103900009D050E94E303082F2091F0053091F105F9
:10391000C90101969093F1058093F005E6EFE10F60
:10392000E53208F090C2F0E0E856F34E0C94CE2B4E
:10393000BD1CBA1DBA1DBA1DBA1DBA1DBA1DBA1DCD
:10394000BA1D781E781E781E781E781E781E781E86
:10395000781E781E781E781E781E531F641FAA1FBB
:103960000021132028206D21CD21092267248B24DA
:103970009B2492270228712888281092870780E0CC
:1039800095E029E0E0918707E99FF0011124E15FCC
:10399000F84F8083E0918707E99FF0011124E15FF0
:1039A000F84F2183E0918707E99FF0011124E15F3F
:1039B000F84F8383E0918707E99FF0011124E15FCD
:1039C000F84F2483E0918707E99FF0011124E15F1C
:1039D000F84F1282309187073F5F309387072F5F40
:1039E0002F3081F68F5F843061F61092880710E0E7
:1039F000B5E0FB2E80918707181708F042C090E0D1
:103A0000B0E0A0E0812E912CB12CA12C8816990653
:103A1000AA06BB069CF42C013D01481859086A0807
:103A20007B0841F00E94DF2AA30192010E94372BFC
:103A30002B013C01840C951CA61CB71CF19E900127
:103A40001124215F384FF901DE0111968F2D01906D
:103A50000D928A95E1F7F89CC0011124815F984F7F
:103A6000FC01D9012F2D01900D922A95E1F7FE015D
:103A70003196DC018F2D01900D928A95E1F71F5F41
:103A8000B9CF1092F1051092F0058BE080939D055F
:103A90008FEF8093E1071092DE071092DF0780938B
:103AA0008C0793E090938D0780938B0710928F077C
:103AB00010928E07EBE8F7E025EC37E06DEB77E04E
:103AC00080E053E04FEF92E0868357834583118671
:103AD0001086418F128E138ED9011D921D929D0169
:103AE000DB011D92BD011F969C931F9753969C93DB
:103AF000539757969C9357975B969C938F5F3596F9
:103B0000843011F74093B8071092B9071092BA07A2
:103B10001092DD07AEEEB5E09FEF21E0FD0186E0FB
:103B20009787108A118A95A716A617A681503596F1
:103B30008111F6CF1D961C921D97FD01E55BFF4F8D
:103B40002083A95BBF4FEAE0F7E0EA17FB0731F7F4
:103B50008091E0078F5F83708093E007282F30E02B
:103B60002F5F3F4F2370332720938C05811102C0B4
:103B70000E94020403FF04C080E280939D0563C19C
:103B8000F0909D0515EF1F0DF2E100E0FF1508F420
:103B90000EE142E0602F81E00E94F303181708F461
:103BA0006CC090E001961817190611F00CF065C072
:103BB00020910C0130910D01E0911401F09115015B
:103BC000E217F3070CF04DC080910E0190910F01A8
:103BD0006091160170911701861797070CF041C08C
:103BE0004091100150911101240F351F30930D01A8
:103BF00020930C014091120150911301840F951FE5
:103C000090930F0180930E0140911801509119017A
:103C1000A0911A01B0911B014A0F5B1F509319012B
:103C200040931801E217F3071CF486179707CCF0AE
:103C300081E00E94D3088AE396E00E94B50CF394D9
:103C4000F0929D051092F1051092F00542E0602F70
:103C500081E00E94F303811720F0809142060E94C8
:103C6000020480919D05833109F0EDC08091E00749
:103C70008111E9C00E940204E6C0D12CE12EF12C92
:103C800057012FEFA21AB20A31E0D31202C0A2E00C
:103C9000DA2E42E0602F8D2D0E94F303181718F1E1
:103CA00090E001968E159F05F4F08091F0059091BB
:103CB000F1050697C1F490909D058D2D0E94D308C3
:103CC000939490929D051092F1051092F00542E0B8
:103CD000602F81E00E94F3038A151B0421F4809178
:103CE00042060E940204D39444E0D412CDCFB9CF4F
:103CF00003FD42CFF5EFDF2ED10E43E068E081E017
:103D00000E94F303D81608F464C0ED2CF12C90E067
:103D100002968E159F050CF45CC020910C01309129
:103D20000D01E0911401F0911501E217F3070CF079
:103D30008AC080910E0190910F01609116017091DF
:103D40001701861797070CF07EC040911001509123
:103D50001101240F351F30930D0120930C01409168
:103D6000120150911301840F951F90930F018093BE
:103D70000E014091180150911901A0911A01B091C2
:103D80001B014A0F5B1F5093190140931801E21762
:103D9000F30724F4861797070CF455C081E00E94BE
:103DA000D3088AE396E00E94B50C1F5F10939D052F
:103DB0001092F1051092F00543E068E081E00E9466
:103DC000F30390E001968E159F05ECF18091420679
:103DD00051CFB12C0D2D10E078015FEFE51AF50AF7
:103DE00061E0B61202C0E2E0BE2E43E068E08B2D37
:103DF0000E94F303D81618F190E0029680179107FD
:103E0000F4F08091F0059091F1050697C1F4A0902F
:103E10009D058B2D0E94D308A394A0929D0510921E
:103E2000F1051092F00543E068E081E00E94F303A1
:103E30008E151F0421F4809142060E940204B3945F
:103E400084E0B812CDCF10919D051B50143208F0BC
:103E500039CCE12FF0E0E15DF04E0C94CE2B9F28A1
:103E60009F289F289F289F289F289F289F289F281A
:103E70009F289F289F289F289F289F289F289F280A
:103E80009F289F289F289F28621B152915293F29B5
:103E9000482948299C29B429EC29182A2A2A2A2A9F
:103EA000342A342A3F2A1092F1051092F00581E25B
:103EB00080939D0580911C0180931D0181E080937A
:103EC0001C010E948804BFCF8091FB05853020F43F
:103ED00080E00E94D308F8CF80914206853020F41C
:103EE00081E00E94D308F8CF80918906853020F4C4
:103EF00082E00E94D308F8CF8091D006853020F46C
:103F000083E00E94D308F8CF8091B907811102C0E5
:103F10000E9488041092F1051092F00581E28093CE
:103F20009D0580911C0180931D0181E080931C01FF
:103F300083EF95E00E94B50C8AE396E00E94B50CF1
:103F400081E896E00E94B50C88EC96E00E94B50CE2
:103F500080E090CEF0908C053091E007A1E0FA1659
:103F6000B9F1489709F06FCF0F2D10E021E0F3125F
:103F700020E0B7E4FB9EC001112448EB57E06091BC
:103F8000B8078D509A4F0E9491144091B80762E093
:103F90008C3D910550F42091890521110BC0863983
:103FA000910540F04091B80761E08F2D0E94CE133B
:103FB00088E2E3CD0F5F1F4F85E0809FF001819F76
:103FC000F00D1124E557F84F12820E9447043BCFB1
:103FD000809188058823E9F021E0313009F020E064
:103FE00048EB57E06091B8078AE396E00E9491148D
:103FF0009C0190911C012639310588F02C3D31053A
:1040000050F02031374258F490931D0183E08093A3
:104010001C0182E2B2CD90931D0182E0F8CF909313
:104020001D0181E0F4CF8034910508F40CCF83E0CA
:10403000809392078093970780939C078093A107B2
:104040001092B9071092F1051092F00584E295CD17
:1040500020918C0538E0AE85BF851D923A95E9F731
:10406000F090E007213009F45AC0489709F0EBCEF0
:10407000FE0131965F018F01D12CE0908C0580917B
:10408000B8078D1599F01B86D9861A86F7E4EF9E3E
:10409000C001112420E0AE01475F5F4F6D2D8D50B0
:1040A0009A4F0E949114D8018D939C93D3940E5FE4
:1040B0001F4FB4E0DB12E1CF4FEF90E080E020E053
:1040C000F501619171915F018617970710F4422FF6
:1040D000CB012F5F2430A1F720918B05222359F0CB
:1040E000FE1009C08C3D910560F062E08E2D0E94AB
:1040F000CE1389E242CD8C3D9105B8F78639910502
:1041000018F061E08E2D52CFF12CFFEFEF1AFF0A6D
:1041100085E08E9DF0018F9DF00D112453CF80918D
:104120001C0180931D0120931C0180911E01909120
:10413000B807891304C0811156C00E94EF00809116
:104140008805882309F44BC09E012F5F3F4F59011A
:104150008901E12C8091B8078E1579F01B86E986DC
:104160001A8620E0AE01475F5F4F6E2D8AE396E02E
:104170000E949114D8018D939C93E3940E5F1F4F7E
:10418000B4E0EB12E7CF3FEF90E080E020E0F501F4
:10419000419151915F018417950710F4322FCA01A4
:1041A0002F5F2430A1F740918B0520911C014423FF
:1041B00031F0F1E0FF1203C086399105B8F086397D
:1041C0009105D0F08C3D910588F0863B9642A0F495
:1041D00030931E0120931D0183E080931C01809188
:1041E0009D058F5FCACC0E94D900A9CF30931E01D4
:1041F00020931D0182E0F1CF20931D0181E0EDCFDE
:104200009091E00707FF18C080911C01209189055B
:10421000222359F0933049F4833009F014CE80936F
:104220001D0181E080931C010ECE9EEF980F92300D
:1042300008F009CE8150F6CF04FF17C080911C0111
:1042400020918905222351F0933041F4813009F007
:10425000FACD80931D0190931C01F5CD9FEF980F2F
:10426000923008F0F0CD8F5FDDCF03FFECCD809171
:104270001C012EEF280F223048F0813009F0E3CDE9
:104280001092970781E280939D059FCE57E4959FFA
:104290008001112468EB77E0C8018D509A4F0E948D
:1042A000A708F801EA5EF94F81E082834091B807E0
:1042B00080911C01823071F0833021F0813021F433
:1042C000198E02C062E0698F698D81E00E94CE1371
:1042D00087E253CC81E0898FF7CF2091E0073091BE
:1042E0008B05332329F0FF24F394213009F4F12CBA
:1042F0008034910508F4A7CD07FF13C080911C01FD
:10430000811105C08091B8070E94EF009CCDFF206D
:1043100021F0823008F08ECF96CD833008F493CD13
:1043200089CF04FF0DC080911C01811105C08091CF
:10433000B8070E94D90087CD833008F084CD93CF91
:1043400005FF04C080911C01811111C006FD14C03D
:1043500003FF79CD80911C019EEF980F9230A8F059
:10436000813009F070CD1092970784E28CCF809352
:104370001D0110921C0167CD80911C018111E8CFB5
:1043800080911D0110921D014DCF40911E0161E0F1
:10439000833009F462E081E0AACE83709927892BEB
:1043A00009F051CD8091FB05882309F1EEEEF5E08F
:1043B00090E080E045E03FEF25852150DC01249F1F
:1043C000A00DB11D1124A350BA4F3C9311961C921D
:1043D000119712961C92258521502587E95BFF4F86
:1043E000895B9F4F8C31A1E09A0731F72CCD109259
:1043F0000D0110920C0110921501109214011092EF
:104400000F0110920E0110921701109216018AE00E
:10441000B4CB1091E007113009F095C08091E1070D
:10442000833021F480918D07823089F001111DC005
:1044300080918705882309F406CD815080938705F4
:10444000811101CD8AE396E00E942509FCCC1092EF
:10445000DD071092B90780918805811102C00E9482
:10446000350989E280939D05E3CF809187058823F4
:1044700031F0109287058AE396E00E942509003208
:1044800061F410919C05112399F28AE396E00E9451
:104490002509115010939C05CBCF003481F4109165
:1044A0009C05809142068150990B181719060CF053
:1044B000BFCF8AE396E00E9425091F5FEBCF00384B
:1044C00011F00C947B2A8AE396E00E942509E09182
:1044D0009C05B5E0EB9FF0011124EC5BF94F81E006
:1044E0008283A6CFE0919C0525E0E29FF001112494
:1044F000EC5BF94F8281882309F49ACF128298CF1E
:10450000813009F095CF1092DD071092B90710E0C5
:1045100005E0FF24FA9480914206181708F09BCF1B
:10452000109FF0011124EC5BF94F8281882349F040
:10453000F082118212828AE396E00E94B50C009309
:1045400042061F5FE8CF80918D078230B1F48091E1
:10455000E10790E00296837099271817190669F40D
:104560001092DD071092B90780918805811102C071
:104570000E94350989E280939D058091F005909114
:10458000F1058F739927892B09F05DCC1092DD0717
:104590001092B907A12EB12C37E4139F40011124CA
:1045A000A4014D505A4F7A01C40182519A4F1C0107
:1045B000DC0115960D911C91C8010E947109D82E3D
:1045C000F701878190E09C012D5F3F4F23703327D7
:1045D0002F5F3F4F45E0429FF001439FF00D1124B4
:1045E000E00FF11F6080FFEF6F1210C00196837023
:1045F00099270196489F9001499F300D1124020F81
:10460000131FD8016C906F1201C0612C41E04D0D59
:104610000D2D10E00D5F1F4FB7E4BA9DB001BB9D9B
:10462000700D112465507A4F4017110611F00CF0EF
:10463000A4C0E42FE3707E2EDB018C9190E0F101A9
:1046400030E020E050E02817390744F4A7857A12BB
:1046500001C05F5F2F5F3F4F3596F5CFD10130E04E
:1046600020E0412C281739078CF41F96EC911F97F6
:104670007E1208C05096EC915097F0E0EE5BFE4F32
:10468000E0814E0E2F5F3F4F1596ECCF513009F071
:1046900072C0BCE0B41508F46EC044244A94D71428
:1046A00011F07EE0472E612CE7E4EA9DC001EB9D0E
:1046B000900D112482519A4F5C01FDE0AF0EB11CA8
:1046C0009C012B5F3F4F398B288B55245A94D71070
:1046D00010C03BE063120DC063944614C0F7C701DD
:1046E0000E94B50C80918805811103CD0E94350987
:1046F00000CD8101912C812CD5018C918815190454
:10470000A1F19CF1F8019785791225C09089961145
:1047100022C081508C93A889B989ED91FC91D80170
:1047200050968C91509786A71F968C911F9785A7BE
:1047300050968C91509781AB1F968C911F9780ABB0
:104740001F965C921F9750961C92509751961C9200
:10475000C7010E94B50C0B5F1F4FF50180818A30A5
:1047600021F0FFEF8F1A9F0AC7CFD5018C918A30B5
:1047700009F0B2CFB4CF4F5F57CF77247394862D13
:1047800090E0FC013396F98BE88BF7E4FA9DC001C9
:10479000FB9D900D11249C0125503A4F3B8B2A8B99
:1047A000A401415F5F4F5D8B4C8B65E0562E09E0A5
:1047B00010E0872D90E09F8B8E8B402EA62CB12C85
:1047C000AE89BF89A00FB11FBB8FAA8FE889F98975
:1047D000AE161F0611F00CF03EC06A2D6370D6169F
:1047E000C1F1FEE0F415A8F121E0B21609F47ACF88
:1047F000AA89BB894C9150E0F1018B2D30E020E07B
:104800002417350744F49785691301C08F5F2F5F24
:104810003F4F3596F5CF87111CC04FEFC7010E945F
:1048200000098F3FB1F06C897D89859D600D711DF8
:10483000112462517A4FFB01818184110AC02A8DB3
:104840003B8D2F30310529F0C7010E94410EBB245A
:10485000B394A394BBCF31E0B31609F443CF0F5FF9
:104860001F4F0131110509F0A8CF739446E074126F
:104870009ECFC7010E94B50C0FEFDD24DA9410E043
:1048800055E0B52E4FEF612FC7010E9400098F3F01
:1048900061F0F4018B9DE00DF11D1124E350FA4FFE
:1048A00091819D1510F4D92E082F1F5F143051F7F8
:1048B0000F3F09F414CFB40155E0059F600D711D41
:1048C000112463507A4FC7010E94410E08CF03FFA5
:1048D000BACA8091B907882309F40BCC0091E0078C
:1048E00060918B0788EB97E00E94AF1367E4069F07
:1048F00080011124C8018D509A4F7C0168EB77E04C
:104900000E94A708F801EA5EF94F81E08283C7019F
:104910000E94B50CDDCC8F739927892B09F093CABF
:104920008091DD078F5F8093DD071092F105109273
:10493000F0058AE222C94090DF07489719F091E01C
:10494000491281CA11E0411210E08091E10790E024
:10495000019645E0642E689EF001699EF00D1124D9
:10496000E557F84F5280A42DB0E0B98BA88BB7E47F
:104970004B9EC0011124FC01ED50FA4F7F01809144
:10498000DE07481238C20781802F90E09C012E5F1D
:104990003F4FA901437055275B8B4A8B5A895E8B29
:1049A0004C0163E0860E911CA3E08A2299240196B3
:1049B0001C01B3E02B22332447E428893989429F24
:1049C000F001439FF00D1124E251FA4FCF010596FB
:1049D0009D8B8C8BA580B680C5010E947109D82E55
:1049E000689CF001699CF00D1124EA0DFB1D718C8F
:1049F000629CF001639CF00D1124EA0DFB1D618C9B
:104A0000F501EA5AFF4F808191E059123AC18017AF
:104A100099F0AE89A81781F0212F4D2D6D2DC7017A
:104A20000E94D90F882309F493C0F1E04F1609F4CE
:104A300051C20E94810A07CAF501EE5AFF4F8081D8
:104A4000813071F44FE06D2DC7010E94EA08412FBB
:104A50008F3F09F485C1682FC7010E947D0EE5CF05
:104A6000682DC5010E948B0B082F622DC5010E9485
:104A70008B0B982E6A89C5010E948B0BB82E0111F1
:104A800002C09920A9F0212F4D2D6D2DC7010E9444
:104A9000D90F8111CACFBB2009F461C14AE06D2D45
:104AA000C7010E9400098F3F09F459C1412FD3CF9C
:104AB000412F6D2DC7010E94B80F8111B6CF212F54
:104AC0004D2D6D2DC7010E94380F8111AECF012FE2
:104AD000262D472D6D2DC7010E94F70E8111A5CF00
:104AE000BB2039F04AE06D2DC7010E9400098F3FBD
:104AF000E9F600E027E4E889F9892E9FC0012F9F9D
:104B0000900D1124AC014D505A4F5A014E89602F1F
:104B1000D5018D919C910E944B0B8150823080F089
:104B20000F5F043099F7412F6D2DC7010E94EE0FE2
:104B300081117BCF412F6D2DC7010E94271075CFAA
:104B4000412F602FC7010E942710882349F36DCFA2
:104B5000B12CA12C220C331C220C331C3401660C0A
:104B6000771C660C771C4A2DAC89BD89ED91FC91B0
:104B7000DF01A20DB31DAA0DBB1DAE5BBF4F8C9113
:104B8000E60DF71DEA0DFB1DEE5BFF4F90819111C5
:104B900055C0811153C0BFEFAB1ABB0AE4E0AE169B
:104BA000B10409F7B12CA12C47E428893989429F27
:104BB000C001439F900D1124DC01AD50BA4F4D014F
:104BC000F40180819181FC01E20DF31DEA0DFB1DD2
:104BD000EE5BFF4F2081FC01E60DF71DEA0DFB1D8A
:104BE000EE5BFF4F8081882391F1FFEFAF1ABF0A80
:104BF00024E0A216B10421F767E448895989649F2B
:104C0000F001659FF00D1124E251FA4F85819681E4
:104C10002A893B892F5F3F4F45E0429FF001439F28
:104C2000F00D1124E80FF91F00810F3FD9F4212F57
:104C30004D2D6D2DC7010E94380FA7C0212F6D2D5E
:104C4000C7010E94D90F882309F4A5CFEECE211108
:104C5000CCCF212F4A2D6D2DC7010E94D90F88235B
:104C600021F2E3CE4A89602F0E944B0B81508230A3
:104C7000F0F6412F602FC7010E9427108823B9F258
:104C8000D4CE801709F465C09E89981709F461C0D5
:104C9000212F4D2D6D2DC7010E94D90F8111C5CE39
:104CA000B12CA12C6C887D88D401AA0FBB1FAA0F40
:104CB000BB1FBB8BAA8B4101880C991C880C991CCB
:104CC0004A2DD301ED91FC91AA89BB89AE0FBF1F7C
:104CD000AA0DBB1DAE5BBF4F8C9181116FC0E80D5B
:104CE000F91DEA0DFB1DEE5BFF4F8081811166C04F
:104CF000BFEFAB1ABB0AE4E0AE16B10409F7B12C62
:104D0000A12C47E428893989429FC001439F900D17
:104D10001124DC01AD50BA4F4D013101660C771CF6
:104D2000660C771CF40180819181EA89FB89E80F88
:104D3000F91FEA0DFB1DEE5BFF4F2081222309F4D2
:104D400046C0FFEFAF1ABF0A24E0A216B10451F724
:104D50006ECFF501EE5AFF4F80818130C9F4412FAB
:104D60006D2DC7010E94B80F81115FCE212F4D2DEF
:104D70006D2DC7010E94380F811157CE012F262DAE
:104D8000472D6D2DC7010E94F70E81114ECECBCE5F
:104D9000682DC5010E948B0B082F622DC5010E9452
:104DA0008B0B011102C08823D1F2212F4D2D6D2DC7
:104DB000C7010E94D90F811138CED1CF212F6D2D7F
:104DC000C7010E94D90F882309F492CF2ECEFC018F
:104DD000E60DF71DEA0DFB1DEE5BFF4F8081811193
:104DE000B0CF212F4A2D6D2DC7010E94D90F8823E6
:104DF00009F4A7CF1ACE31E0531205C0612FCF01BD
:104E00000E943D1012CE67E448895989649FF001E1
:104E1000659FF00D1124E251FA4FA580B680C501BF
:104E20000E947109082F682FC5010E945309DC01F7
:104E300011969C90C5010E94310B882359F0212FB7
:104E4000492D602FC7010E94D90E8111EECD412F4F
:104E5000602F19C0F501ED5AFF4F8081F501869D45
:104E6000E00DF11D1124D18CC5010E948709882312
:104E7000A9F0212F492D602FC7010E94D90E412F83
:104E80006D2D8111D2CDC7010E9427108111CDCD8A
:104E9000412F602FC7010E94EE0FC7CD6D2DC501B8
:104EA0000E94EB0A5C01212F4D2D602FC7010E944B
:104EB000D90F8111BACD212FF50141816D2DC70187
:104EC0000E94D90E8111B1CD412F6D2DC7010E94D5
:104ED0002710BBCF809188058823F9F08AE396E0FC
:104EE0000E9425099091420620913C0630913D0692
:104EF000E4E4F6E080E0981769F04081421303C0D3
:104F00004181431719F08F5F3596F5CF91E0928379
:104F100080939C058BE20C94BD1D40924606109236
:104F20009C05F8CF0032C1F4E0919C05EE2311F40A
:104F30000C94231F1FEF1E0F10939C058AE396E02D
:104F40000E94250925E0129FF0011124EC5BF94F26
:104F500081E082830C94231F003401F5E0919C05CD
:104F6000A091DF0737E4A39FD0011124AD50BA4FC1
:104F700018968C918150990BE817190614F00C942F
:104F8000231F11E01E0F10939C058AE396E00E94F8
:104F9000250945E0149FF0011124D8CF083011F005
:104FA0000C94231FF0909C050091DF0757E4059FA8
:104FB0008001112485E0D801F89EA00DB11D1124B7
:104FC000A350BA4F12969C911297992311F40C9406
:104FD000231FE091DE07E89FF0011124EC55F84F04
:104FE00060810D501A4F8C91681731F0C8010E94F2
:104FF000160981110C94231F40E06F2DC8010E94F7
:105000007D0E17CD8091DD07853009F04BC0809172
:10501000E1078823B9F18230A9F10091BE078091A0
:10502000C007080F11E0802F0E940501982F811101
:1050300032C0033070F1053081F1E12FF0E07B9652
:10504000EE0FFF1FE557F84F20813181280F311DEA
:1050500031832083E1E01E27E12FF0E07B96EE0F05
:10506000FF1FE557F84F20813181290F311D243F63
:1050700061E03607A4F08AEE91E0918380838DE2AF
:105080000C94BD1D0091BD078091BF07080F10E073
:10509000CACF92E0D2CF90E0D0CF94E0CECF318390
:1050A0002083EDCF03FD02C00C94231F8FEF80936C
:1050B000A4071092A5071092A6078093A907109243
:1050C000AA071092AB078093AE071092AF07109219
:1050D000B0078093B3071092B4071092B5070C94F1
:1050E00079208091C1079091C2070A9754F480916A
:1050F000C3079091C4070A9724F403FD88C90C9450
:10510000231F8EE280939D0510928A050C94231F25
:10511000285731092F33310528F480918A058F5F94
:1051200080938A0503FD02C00C94231F80918A0599
:105130008D3310F40C94231F85E00C94BD1D60E0AA
:105140008C2D0E94F5118C2D0E9491138C2D0E94A4
:10515000940761E08C2D0E947E14A0900C01B09009
:105160000D0180911401909115018A159B0514F091
:105170000C94621BE0900E01F0900F0180911601DB
:1051800090911701E816F90614F00C94621B42E0A6
:1051900060E081E00E94F303181730F090E0019680
:1051A0001817190691F08CF043E068E081E00E9446
:1051B000F303181710F40C94621B90E00296181772
:1051C000190619F014F00C94621B8091180190914B
:1051D000190197FD0F96A4E095958795AA95E1F79B
:1051E00064E20E949A2B0C2D10E0A3E09A9F000D20
:1051F000111D1124F7FE03C0BFE0EB0EF11CF4E01B
:10520000F594E794FA95E1F7B70164507109C50187
:10521000B7FC0F96E4E095958795EA95E1F720E8CD
:1052200039E443E005970C94E81B8C2D0E94911300
:1052300060E08C2D0E94F51160E08C2D0E947E14A0
:1052400080918C058130B1F400911C01802F90E099
:105250008C01000F111F080F191F0C0D111D035099
:10526000110924EC30EC43E06FE070E08CE290E058
:105270000E940B068C2D0E9459060C94621B60E064
:105280008C2D0E94F51160E08C2D0E947E14F2CFCF
:105290008091E00790918B05992329F0E1E0E88F58
:1052A000813009F4188E8C2D0E94911360E08C2DB2
:1052B0000E94F51160E08C2D0E947E1480918C0577
:1052C0008130C1F600911C01802F90E08C01000F0D
:1052D000111F080F191FF88D90E080E0F11102C036
:1052E0008CE090E0EC2CF12C080F191F0E0D1F1D07
:1052F00028E238EC43E06FE070E08DE190E00E943E
:105300000B0680911C0100911E0110E0811111C05B
:10531000C801880F991F080F191F0E0D1F1D2AE2C3
:1053200033EE43E067E170E082E290E00E94B7076D
:10533000A1CF0C5F1F4FECCF0C2D10E02CE736E90E
:1053400045E063E170E082E290E00E94B70760E030
:105350008C2D0E94F5118C2D0E94590660E08C2D39
:105360000E947E140C94621B8091E007813011F53D
:105370008091E107833021F480918D07823059F0CC
:105380000C2D10E02CE537E945E06FE070E085E199
:1053900090E00E94B7078C2D0E94ED098C2D0E9491
:1053A00059068C2D0E94680761E08C2D0E94F51132
:1053B0000C94621B8C2D0E94940760E08C2D0E943F
:1053C000F5118C2D0E94ED098C2D0E9459068C2D13
:1053D0000E9468070C94621B8C2D0E94911360E060
:1053E0008C2D0E94F5118C2D0E94ED090C2D10E0E2
:1053F0009091B9078091E10791110DC023E0829F40
:10540000000D111D112424E034EE43E06EE070E045
:1054100081E290E08BCF33E0839F000D111D1124BA
:1054200024E034EE43E06EE070E08CE290E07ECF6A
:1054300060E08C2D0E94F51140E06FEF8C2D0E94F2
:10544000EA128C2D0E94ED098091DD0781110C94E8
:10545000621B10CF60E08C2D0E94F51140E06FEFD1
:105460008C2D0E94EA123CC060E08C2D0E94F51148
:105470008BE897E00E949F0940E0682FF1CF1091E0
:105480008A051123A9F3412F6FEF8C2D0E94EA1298
:105490008091F0059091F1056CE870E00E94A62BD8
:1054A0008034910510F5969587952C2D30E0A90153
:1054B00063E0869F400D511D1124A12FA753BB0B04
:1054C000BD012091C3073091C4078A012A303105FC
:1054D00074F027E939EC45E080E190E00E94B707DD
:1054E0008C2D0E94ED090C94621B80E0DECF29E533
:1054F00032E746E0F1CF003111F40C94722208300B
:1055000011F00C94182220914206E6E4F6E090E0B7
:1055100080E0291711F40C948022308131118F5FC3
:105520009F5F3596F6CF8F929F92AF92BF92CF92A8
:10553000DF92EF92FF92CF93DF93EC016881798144
:105540008A819B81611571058105910521F464E2D1
:1055500079ED8BE597E02DE133EF41E050E00E94DB
:10556000372B49015A019B01AC01A7EAB1E40E9423
:10557000562B6B017C01ACEEB4EFA50194010E94A7
:10558000642BC60ED71EE81EF91EF7FE06C081E08A
:10559000C81AD108E10880E8F80AC882D982EA82EC
:1055A000FB82C701B6019F77DF91CF91FF90EF900B
:1055B000DF90CF90BF90AF909F908F9008958F9283
:1055C0009F92AF92BF92CF92DF92EF92FF92609143
:1055D0001F0170912001809121019091220161159C
:1055E00071058105910521F464E279ED8BE597E081
:1055F0002DE133EF41E050E00E94372B49015A0181
:105600009B01AC01A7EAB1E40E94562B6B017C011F
:10561000ACEEB4EFA50194010E94642BC60ED71E18
:10562000E81EF91EF7FE06C081E0C81AD108E1089D
:1056300080E8F80AC0921F01D0922001E092210177
:10564000F0922201C701B6019F77FF90EF90DF90A3
:10565000CF90BF90AF909F908F90089560931F015F
:105660007093200180932101909322010895052ECB
:1056700097FB1EF400940E944E2B57FD07D00E940A
:10568000692B07FC03D04EF40C944E2B509540959B
:10569000309521953F4F4F4F5F4F089590958095DE
:1056A000709561957F4F8F4F9F4F08950E948B2B70
:1056B000A59F900DB49F900DA49F800D911D112466
:1056C0000895B7FF0C94562B0E94562B821B930B08
:1056D0000895A1E21A2EAA1BBB1BFD010DC0AA1F33
:1056E000BB1FEE1FFF1FA217B307E407F50720F04B
:1056F000A21BB30BE40BF50B661F771F881F991FC6
:105700001A9469F760957095809590959B01AC010E
:10571000BD01CF010895A29FB001B39FC001A39F17
:10572000700D811D1124911DB29F700D811D1124DA
:10573000911D0895991B79E004C0991F961708F0F0
:10574000961B881F7A95C9F780950895AA1BBB1BE5
:1057500051E107C0AA1FBB1FA617B70710F0A61B71
:10576000B70B881F991F5A95A9F780959095BC0192
:10577000CD01089597FB072E16F4009407D077FD0E
:1057800009D00E94A62B07FC05D03EF49095819588
:105790009F4F0895709561957F4F0895EE0FFF1FFD
:0C57A0000590F491E02D0994F894FFCFDF
:1057AC00FFFFFFFF00E10000000000000000000010
:1057BC0000000000000000000000B0010101000129
:1057CC0000000000020103FF00030000FF000300C3
:1057DC0000FF00030000FF0003000000C1808100F7
:1057EC000000000102030405060708090A0B0C0D52
:1057FC000E000000004402080365025A02AB026965
:04580C00028702000D
:00000001FF
